:107C00001F92CDB7DEB7112484B714BE81FD06C024
:107C100083FF03C08983F5D08981E5D185E0809316
:107C2000810082E08093C00088E18093C10096E0EB
:107C30009093C20090E19093C400809360008EE026
:107C400080936000219A26E080E39CEF31E09093DE
:107C500085008093840036BBB09BFECF199AA8950F
:107C60002150A9F7612C712C48E1E42E58E0D52E63
:107C700063E0F62ECC24C39475E0B72EE1E1AE2E7E
:107C80008BD1813469F488D1898394D189818238F8
:107C9000F1F0813811F485E001C083E076D17AC03B
:107CA000823411F484E103C0853419F485E08ED167
:107CB00071C0853541F470D1682E6ED1712C782A4F
:107CC000660C771C66C0863521F484E07FD180E0A5
:107CD000E5CF843609F040C05FD15ED1982E5CD1EB
:107CE000611480E7780618F000E011E004C0F301A9
:107CF000F7BEE895F9CF50D1F80181938F019E121C
:107D0000FACF6114F0E77F0618F0F301F7BEE895AB
:107D100051D107B600FCFDCFA301A0E0B1E08C91EA
:107D200012969D0121503109F901208190E0922B9A
:107D3000FA010C01C7BEE89511244E5F5F4FA038D1
:107D4000F1E0BF0761F7F301B7BEE89507B600FCA5
:107D5000FDCFA7BEE8951EC0843761F41DD11CD1AC
:107D6000182F1AD127D1F30185913F010ED111505F
:107D7000D1F710C0853739F41DD18EE106D185E9E0
:107D800004D18FE08BCF813521F4E0926000D09256
:107D9000600010D180E1F9D073CF8EBD0DB407FE25
:107DA000FDCF8EB50895439885E0F7DF80E0F5DFDD
:107DB000439A81700895CF93C82F662321F060E025
:107DC00086E0F9DF439AEFDF8111FDCF43988C2FD6
:107DD000CF91E3CFCF92DF92EF92FF926B017C01C4
:107DE00060E083E0E8DF8E2DD8DF8D2DD6DF8C2D8F
:107DF000D4DF80E0D2DF439AFF90EF90DF90CF9006
:107E000008959F92AF92BF92CF92DF92EF92FF922E
:107E10000F931F93CF93DF9388E1809360001092BC
:107E2000600084B18C6284B93B9A439A2A9A8CB5DB
:107E300080658CBD43988FE9B0DF80E0AEDF439A68
:107E400081508E3F08F095C061E081E0B4DF80E0B2
:107E5000A4DF439A60E070E0CB01BCDF863409F018
:107E600088C061E070E080E090E0B4DF8C3409F01D
:107E700080C062E070E080E090E0ACDF883509F01F
:107E800078C066E070E080E090E0A4DF8A3309F01B
:107E900070C069E070E080E090E09CDF8A3309F018
:107EA00068C067E070E080E090E094DF082F68E051
:107EB00070E080E090E08EDF10E0102F0027082BAC
:107EC00000FD57C0199AE12CF12CC0E0D0E0BB2492
:107ED000B39483E0A82E95E0992EC017D10768F5DA
:107EE000BE01665F7F4F80E090E074DFC82ED12C2A
:107EF000BE01655F7F4F80E090E06CDFD82AFE0115
:107F00000601B7BEE89511242296CE018F779927F6
:107F1000892B19F0C017D10701F7F701A7BEE89523
:107F200007B600FCFDCFF70197BEE89507B600FC49
:107F3000FDCFF0E8EF0EF11CD0CF199881E187BF9B
:107F4000E895065F1F4F61E00130104810F482E5AC
:107F500001C088ED30DF80E020DF80E01EDF80E0C0
:107F60001CDF439A88E18093600088E08093600082
:107F7000FFCFDF91CF911F910F91FF90EF90DF9096
:107F8000CF90BF90AF909F9008959091C00095FFC3
:107F9000FCCF8093C6000895199A8091C00087FF96
:107FA000FCCF8091C00084FD01C0A8958091C600DF
:107FB000199A0895F1DF803239F088E180936000EA
:107FC00088E080936000FFCF84E1DFCFCF93C82F9C
:107FD000E3DFC150E9F7CF91EDCFE0E6F0E098E1C3
:107FE000908380830895282EE0E6F0E088E1808386
:087FF0001082EE27FF2709941F
:027FFE0000057C
:0400000300007C007D
:00000001FF
