:107C00001F92CDB7DEB7112484B714BE81FD06C024
:107C100083FF03C08983F5D08981DED185E080931D
:107C2000810082E08093C00088E18093C10096E0EB
:107C30009093C20090E19093C400809360008EE026
:107C400080936000219A26E080E39CEF31E09093DE
:107C500085008093840036BBB09BFECF199AA8950F
:107C60002150A9F7612C712C48E1E42E58E0D52E63
:107C700063E0F62ECC24C39475E0B72EE1E1AE2E7E
:107C800084D1813469F481D189838DD1898182380D
:107C9000F1F0813811F485E001C083E06FD17AC042
:107CA000823411F484E103C0853419F485E087D16E
:107CB00071C0853541F469D1682E67D1712C782A5D
:107CC000660C771C66C0863521F484E078D180E0AC
:107CD000E5CF843609F040C058D157D1982E55D100
:107CE000611480E7780618F000E011E004C0F301A9
:107CF000F7BEE895F9CF49D1F80181938F019E1223
:107D0000FACF6114F0E77F0618F0F301F7BEE895AB
:107D10004AD107B600FCFDCFA301A0E0B1E08C91F1
:107D200012969D0121503109F901208190E0922B9A
:107D3000FA010C01C7BEE89511244E5F5F4FA038D1
:107D4000F1E0BF0761F7F301B7BEE89507B600FCA5
:107D5000FDCFA7BEE8951EC0843761F416D115D1BA
:107D6000182F13D120D1F30185913F0107D1115074
:107D7000D1F710C0853739F416D18EE1FFD085E9EF
:107D8000FDD08FE08BCF813521F4E0926000D0925E
:107D9000600009D180E1F2D073CF8EBD0DB407FE33
:107DA000FDCF8EB508955F9885E0F7DF80E0F5DFC1
:107DB0005F9A81700895CF93C82F662321F060E009
:107DC00086E0F9DF5F9AEFDF8111FDCF5F988C2F9E
:107DD000CF91E3CFCF92DF92EF92FF926B017C01C4
:107DE00060E083E0E8DF8E2DD8DF8D2DD6DF8C2D8F
:107DF000D4DF80E0D2DF5F9AFF90EF90DF90CF90EA
:107E000008959F92AF92BF92CF92DF92EF92FF922E
:107E10000F931F93CF93DF9388E1809360001092BC
:107E2000600084B18C6284B9579A5F9A2A9A8CB5A3
:107E300080658CBD5F988FE9B0DF80E0AEDF5F9A30
:107E400081508E3F08F08EC061E081E0B4DF80E0B9
:107E5000A4DF5F9A60E070E0CB01BCDF863409F0FC
:107E600081C061E070E080E090E0B4DF8C3409F024
:107E700079C062E070E080E090E0ACDF883509F026
:107E800071C066E070E080E090E0A4DF8A3309F022
:107E900069C069E070E080E090E09CDF8A3309F01F
:107EA00061C067E070E080E090E094DF082F68E058
:107EB00070E080E090E08EDF10E0102F0027082BAC
:107EC00000FD50C0199AE12CF12CC0E0D0E0BB2499
:107ED000B39483E0A82E95E0992EC017D10768F5DA
:107EE000BE01665F7F4F80E090E074DFC82ED12C2A
:107EF000BE01655F7F4F80E090E06CDFD82AFE0115
:107F00000601B7BEE89511242296CE018F779927F6
:107F1000892B19F0C017D10701F7F701A7BEE89523
:107F200007B600FCFDCFF70197BEE89507B600FC49
:107F3000FDCFF0E8EF0EF11CD0CF199881E187BF9B
:107F4000E89561E088ED37DF80E027DF80E025DF1E
:107F500080E023DF5F9A88E18093600088E080936F
:107F60006000FFCFDF91CF911F910F91FF90EF90B5
:107F7000DF90CF90BF90AF909F9008959091C000F8
:107F800095FFFCCF8093C6000895199A8091C00098
:107F900087FFFCCF8091C00084FD01C0A89580912F
:107FA000C600199A0895F1DF803239F088E1809394
:107FB000600088E080936000FFCF84E1DFCFCF9343
:107FC000C82FE3DFC150E9F7CF91EDCFE0E6F0E055
:107FD00098E1908380830895282EE0E6F0E088E120
:0A7FE00080831082EE27FF2709942A
:027FFE0000057C
:0400000300007C007D
:00000001FF
