:020000040000FA
:06000000BFEF67F01200E3
:020006001200E6
:060008002CEF58F012007D
:02000E000004EC
:04001000A300000B3E
:02001400FFFFEC
:02001600FEFEEC
:06001800D5EF57F01200C5
:02001E001200CE
:1000200062D00000FD0500000100000061D000006A
:10003000FC0500000100000060D00000FB0500008E
:10004000010000005DD00000F0050000030000008A
:1000500034D000003C0500002900000030D0000032
:10006000E9050000040000002ED00000F7050000A4
:100070000200000026D00000570F0000080000001A
:1000800025D00000FA0500000100000022D0000089
:10009000ED05000003000000DACF0000000E0000B4
:1000A00048000000D0CF0000D70500000A00000083
:1000B000CFCF0000F905000001000000160000008D
:1000C000F505000002000000CBCF0000E5050000B0
:1000D00004000000C1CF0000CD0500000A000000B0
:1000E00014000000F305000002000000B2CF000081
:0800F0009D0500000F00000057
:0800F800030145510501F55D0E
:1001000001E11200FE0EF55D1FE01C0EE66EE66AD0
:10011000290EE66E030EE66EF5511C0DF3CF14F0BA
:10012000F4CF15F0000E1426040E152214C0E6FFBD
:1001300015C0E6FF50EC61F0166E060EE15C02E2BF
:10014000E16AE552E16E165045C3F5F5FE0E030176
:10015000455D01E112001C0EE66EE66A45511C0D7C
:10016000F3CF14F0F4CF15F0000E1426040E152270
:1001700014C0E6FF15C0E6FF290EE66E030EE66E1C
:1001800050EC61F0166E060EE15C02E2E16AE552A7
:10019000E16E165012000501F551F65D01E1120005
:1001A000FE0EF65D32E0270E0301C56FC66B03013C
:1001B000010EC46F0301020EC26F030EC36F05016F
:1001C000F6511C0DF3CFE9FFF4CFEAFF000EE9264C
:1001D000040EEA221B0EE926000EEA22EFCFC1F33D
:1001E000F6511C0DF3CFE9FFF4CFEAFF000EE9262C
:1001F000040EEA22EECFBFF3EFCFC0F30301270EC8
:10020000BF5F000EC05B35EC20F0F5C5F6F5270E9C
:100210000301C56FC66B44C3C4F329C3C2F32AC329
:10022000C3F30301C25F000EC35B0301010EC16F84
:100230000301020EBF6F030EC06F35EF20F00C01FB
:100240006A0E1D6F160E1E6F0301005101110FE1A2
:10025000DAEC41F006C000F307C001F3FF0E030122
:100260000017070E0117000E0027040E01233C0E95
:10027000E66EE66AE66AC40EE66E040EE66E9EEC74
:1002800061F0146E050EE15C02E2E16AE552E16E96
:1002900014500C01156B146B1451146E156A070E73
:1002A000145C000E155801E317D114CC45F324DF7C
:1002B000540E146ECF0E156E000E166E14CC17F081
:1002C000186A196A060E0C6E0D6A0E6A14CC07F0D5
:1002D00018C008F019C009F032EC66F0145004247C
:1002E000F36E15500520F46E16500620F86EF4CF0C
:1002F000F7FFF3CFF6FFF62A000EF722F8220800E8
:10030000F5CF1CFC540E146ECF0E156E000E166E3B
:1003100014CC17F0186A196A060E0C6E0D6A0E6A74
:1003200014CC07F018C008F019C009F032EC66F0E0
:1003300014500424F36E15500520F46E1650062058
:10034000F86EF4CFF7FFF3CFF6FF020EF626000E9D
:10035000F722F8220900F5CF16FC0A00F5CF17FCAA
:10036000540E146ECF0E156E000E166E14CC17F0D0
:10037000186A196A060E0C6E0D6A0E6A14CC07F024
:1003800018C008F019C009F032EC66F005C018F08A
:1003900006C019F014500424F36E15500520F46EB5
:1003A00016500620F86EF4CFF7FFF3CFF6FF040ED9
:1003B000F626000EF722F8220900F5CF18FC0A00F5
:1003C000F5CF19FC0C011C512DE11DCC1AFC1ECCE3
:1003D0001BFC270E176A1625166E17511722010EE1
:1003E0001626000E172216501825146E17501921C4
:1003F000156E010E1426000E152214501D271550DF
:100400001E231DCC14F01ECC15F0166A176AD88076
:10041000FC0E14541F0E1554000E1654000E1754E3
:1004200002E2EFD7FFD71CCC44F3270E0C011A25AC
:100430000301296F000E0C011B2103012A6F2951B2
:100440000C01162503012B6F2A510C011721030102
:100450002C6F010E2B27000E2C232B510C0118257D
:1004600003012D6F2C510C01192103012E6F0D0E6C
:100470003F6F409790DE540E146ECF0E156E000E37
:10048000166E14CC17F0186A196A060E0C6E0D6AF7
:100490000E6A14CC07F018C008F019C009F032EC4D
:1004A00066F004C017F005C018F006C019F014502B
:1004B0000424F36E15500520F46E16500620F86ED5
:1004C000F4CFF7FFF3CFF6FF0800F5CF28F3E5EC04
:1004D00016F00C01142BE0D612000C013C6B3C51C1
:1004E000146E156A070E145C000E155801E3CDD08A
:1004F0003CCC45F301DE0D0E03013F5D01E0C2D0AF
:100500004ADE03014D51285D01E0BCD0180E256F75
:10051000020E266F4A510CE14BC312F34CC313F386
:100520004087040E3F6F4BC342F34CC343F3A7D045
:10053000000E005D040E015906E3880ED8800055B8
:10054000130E015503E2006B040E016F00C312F39A
:1005500001C313F3002B000E01234BC310F34CC354
:1005600011F396EC66F006C037F307C038F308C005
:1005700039F309C03AF3030140894A51040A3DE0C6
:10058000070A18E0020A03E0030A01E078D046C334
:1005900018F347C319F348C31AF349C31BF3020EF8
:1005A0004A5D02E0000E01D0010E2495E8B02485DA
:1005B0003F6B65D048514625166E49514721176E4D
:1005C00016504B25146E17504C21156E14501219ED
:1005D000426F15501319436F46C318F347C319F3FD
:1005E00048C31AF349C31BF3276B270E026F036B33
:1005F000046B056B020E3F6F42D046C3E9FF47C351
:10060000EAFF020EE926000EEA22EECF18F0EFCF45
:1006100019F046C3E9FF47C3EAFF1850EE24166EEF
:100620001950EE20176E16504B25146E17504C21A2
:10063000156E14501219426F15501319436F0A0E9C
:10064000E66EE66A46C3E6FF47C3E6FF180EE66EAF
:10065000030EE66E50EC61F0146E060EE15C02E2F1
:10066000E16AE552E16E14500301050E3F6F03018C
:10067000010EAE6F0301020EAD6FB8EC10F00C016D
:100680003C5112000C013C2B2AD7FE0C4EC345F303
:1006900033DD030141A902D04199010C000C4FC385
:1006A00045F32ADD070E03013F5D01E0000C010C5C
:1006B00050C345F321DD33C335F334C336F30301AF
:1006C0003F51080A44E0010A42E0050A40E0020AFC
:1006D0003BE0050A25E00D0A0FE0010A0DE0070ADC
:1006E0003DE0020A3BE0010A39E0060A37E0040A6D
:1006F0002EE158EC46F032D00301010EAE6F03013B
:10070000110EAD6FB8EC10F003011451151106E095
:100710000E512F19F1E10F513019EEE1080E15D0ED
:100720000301010EAE6F0301110EAD6FB8EC10F0B6
:1007300003011451151106E00E512F19F1E10F516B
:100740003019EEE10C0E01D00D0E3F6F12000301C7
:10075000AE6B0301140EAD6FB8EC10F0E5EF16F0C0
:1007600051C345F3C9DC0301409751C350F358EF1F
:1007700003F052C345F3C0DC0EDD0A0EE66EE66AF6
:10078000180EE66E030EE66E530EE66E030EE66E70
:1007900050EC61F0146E060EE15C02E2E16AE55293
:1007A000E16E145010C35DF311C35EF3530E146E6B
:1007B000030E156E14C0F3FFF46E12005FC345F311
:1007C0009BDCE9DC03010E512F1902E10F513019B6
:1007D00008E00301010EAE6F0301100EAD6FB8EC1F
:1007E00010F0120060C345F387DC3FC304FC070E22
:1007F0000C01045D06E00B0E045D03E0F36AF46A8D
:100800001200030131512F5D3251305919E3295142
:100810002B5D166E2C512A55176E1606000E175AB0
:1008200031512F5D186E30513255196E1850165CCB
:10083000146E19501758156E14C0F3FFF46E1200A1
:100840002F51315D146E32513055156E1406000E65
:10085000155A14C0F3FF15C0F4FF120061C345F32D
:100860004BDC61C360F3BEDFF3CF28FCF4CF29FC7F
:100870000C01F350F41001E1000C010E281905E100
:10088000295103E161C35FF399DF03014151010B7A
:1008900014E129512B5D146E2C512A55156ED890F8
:1008A000153214320C012851145C2951155805E3F6
:1008B00061C35FF383DF03014181010E0301C56F53
:1008C000C66B0301C46F0301620EC26F030EC36FD8
:1008D00044C3C1F32FC3BFF330C3C0F335EC20F0E2
:1008E00003012F2B000E30232B512F5D2C5130593B
:1008F00004E329C32FF32AC330F30C01010E281996
:1009000006E1295104E161C35FF358DF010C0301E3
:1009100040BB13D0408BA0EC66F006C014F007C0BB
:1009200015F0166A176A060E1426000E15221622F6
:10093000172214C03BF315C03CF3010C0C01406BB3
:10094000416B63C345F37CEC00F063C360F34ADFA3
:10095000F3CF3EFCF4CF3FFC0C01F350F41006E162
:1009600063C35FF32BDFF36AF46A12003ECC3CFCF6
:100970003FCC3DFC3E510301665D0C013F5103013C
:10098000675904E266C33CFC67C33DFC4151010B5F
:1009900014E129512B5D146E2C512A55156ED890F7
:1009A000153214320C013E51145C3F51155805E3C9
:1009B00063C35FF303DF0301418103012F510C0186
:1009C0003C25146E030130510C013D21156E0301CD
:1009D0002B51145C2C5115582DE32F512B5D0C011C
:1009E000406F030130512C590C01416F40CCC5F3CD
:1009F000E8CFC6F30301010EC46F64C3C2F365C33D
:100A0000C3F344C3C1F32FC3BFF330C3C0F335EC0A
:100A100020F00C014051030164270C0141510301F6
:100A200065230C0140513C5F41513D5B29C32FF3CD
:100A30002AC330F33CCCC5F33DCCC6F30301010E11
:100A4000C46F64C3C2F365C3C3F344C3C1F32FC30C
:100A5000BFF330C3C0F335EC20F00C013C5103016F
:100A60002F270C013D51030130230C013E5103019E
:100A7000665D0C013F510301675904E363C35FF3F3
:100A80009DDE15D040BB13D0408BA0EC66F006C0B5
:100A900014F007C015F0166A176A060E1426000E29
:100AA00015221622172214C03BF315C03CF30C018B
:100AB0003C514025146E3D514121156E14C0F3FF89
:100AC000F46E12000C012C6B2D6B68C345F37CECAB
:100AD00000F068C360F386DEF3CF2AFCF4CF2BFC72
:100AE0000C01F350F41006E168C35FF367DEF36AAC
:100AF000F46A120003014151010B14E129512B5DED
:100B0000146E2C512A55156ED890153214320C01E2
:100B10002A51145C2B51155805E368C35FF34EDE70
:100B2000030141812ACC28FC2BCC29FC0C012A5141
:100B300003016C5D0C012B5103016D5904E26CC380
:100B400028FC6DC329FC2F510C012825146E0301CC
:100B500030510C012921156E03012B51145C2C51CD
:100B6000155830E32F512B5D0C012C6F03013051D0
:100B70002C590C012D6F2CCCCDF3E8CFCEF369C3EB
:100B8000CAF36AC3CBF36BC3CCF344C3C9F32FC31B
:100B9000C7F330C3C8F397EC20F02CCC14F02DCC65
:100BA00015F0166A14500301692715506A23165070
:100BB0006B230C012C51285F2D51295B29C32FF386
:100BC0002AC330F328CCCDF329CCCEF369C3CAF3C2
:100BD0006AC3CBF36BC3CCF344C3C9F32FC3C7F3CE
:100BE00030C3C8F397EC20F00C01285103012F27E4
:100BF0000C012951030130230C012A5103016C5DC2
:100C00000C012B5103016D5904E368C35FF3D6DD7A
:100C100015D040BB13D0408BA0EC66F006C014F09A
:100C200007C015F0166A176A060E1426000E152264
:100C30001622172214C03BF315C03CF30C012851B7
:100C40002C25146E29512D21156E14C0F3FFF46E5E
:100C500012006FC3E6FF70C3E6FF0DEC62F0E552D1
:100C6000E552F3CF66F3F4CF67F36FC364F370C359
:100C700065F36EC363F362DE03016F51F324146EF8
:100C80007051F420156E14C0F3FFF46E120072C39D
:100C9000E6FF73C3E6FF74C3E6FF1BEC62F0E552A8
:100CA000E552E55207C06CF308C06DF372C369F3F7
:100CB00073C36AF374C36BF371C368F303DF196A18
:100CC00003017251F324146E7351F420156E7451A4
:100CD0001920166E14C007F015C008F0096E120036
:100CE00075C345F37CEC00F0030129512B5D0C0129
:100CF000026F03012A512C590C01036F010E025F90
:100D0000000E035B75C360F36DDDF3CF00FCF4CF21
:100D100001FC0C01F350025D146E0351F454156E86
:100D200014C0F3FFF46E120076C377F318D8F3CF34
:100D300014F0F4CF15F0F350F41010E076C345F33F
:100D40007CEC00F033C335F334C336F30301010EFA
:100D5000AE6F0301100EAD6FB8EC10F0120077C348
:100D600045F37CEC00F003013551335D36513459C5
:100D700006E33551335D146E3451365515D0355177
:100D80002D5D166E2E513655176E010E1626000E6D
:100D900017222B51335D186E34512C55196E165095
:100DA0001824146E17501920156E14C0F3FFF46E3A
:100DB000120078C377F3D3DFF3CF00FCF4CF01FC4C
:100DC0000C01F350F41001E1000C78C345F37CEC06
:100DD00000F0030179517A1112E0010E0301C56F91
:100DE000C66B44C3C4F335C3C2F336C3C3F30301B4
:100DF000C16F79C3BFF37AC3C0F335EC20F00301B0
:100E0000352B000E362335512D5D36512E5904E217
:100E10002BC335F32CC336F30C01010E001905E189
:100E2000015103E103014185010C030140BB13D0D3
:100E3000408BA0EC66F006C014F007C015F0166AEF
:100E4000176A1F0E1426000E15221622172214C030
:100E50003BF315C03CF3010C0C01026B036B7BC32D
:100E600077F37DDFF3CF00FCF4CF01FC0C01F350EE
:100E7000F41003E1F36AF46A12007BC345F37CECDF
:100E800000F003017E510C01005D03017F510C0154
:100E9000015904E200CC7EF301CC7FF3030135510C
:100EA0007E25146E36517F21156E14502D5D155020
:100EB0002E5938E235512D5D0C01026F0301365178
:100EC0002E590C01036F010E0227000E03230301AC
:100ED0007C517D111BE002CCC5F303CCC6F344C3A7
:100EE000C4F335C3C2F336C3C3F30301010EC16FAC
:100EF0007CC3BFF37DC3C0F335EC20F00C0102517D
:100F000003017C270C01035103017D230C010251D5
:100F100003017E5F0C01035103017F5B2BC335F39B
:100F20002CC336F37C517D1113E07EC3C5F37FC320
:100F3000C6F344C3C4F335C3C2F336C3C3F30301DA
:100F4000010EC16F7CC3BFF37DC3C0F335EC20F04D
:100F500003017E5135277F5136230C0102510301D5
:100F60007E270C01035103017F237E510C01005D9C
:100F7000146E015103017F55156E14507E5D15509E
:100F80007F5902E3418515D040BB13D0408BA0ECC4
:100F900066F006C014F007C015F0166A176A1F0E37
:100FA0001426000E15221622172214C03BF315C07A
:100FB0003CF37EC3F3FF7FC3F4FF120080C345F30D
:100FC0007CEC00F003012B512D5D0C01026F03013D
:100FD0002C512E590C01036F80C377F3C0DE0C0136
:100FE000F350025D146E0351F454156E14C0F3FFF8
:100FF000F46E120003018451851103E1F36AF46A6F
:10100000120081C345F37CEC00F081C377F3A7DEC7
:10101000F3CF02FCF4CF03FC030186518425146E48
:1010200087518521156E0C011450F35C1550F4584E
:101030000BE2030186510C01025D0301846F8751AD
:101040000C0103590301856F0301355186250C01FD
:10105000006F0301365187210C01016F005103011C
:101060002D5D0C01015103012E590FE22B512D5D15
:10107000146E2E512C55156E010E1426000E1522DD
:1010800014500C01005F1550015B0C01005103016D
:101090002D5D0C01046F015103012E590C01056FE8
:1010A000010E0427000E0523030184510C01045D89
:1010B000030185510C01055912E384C3C5F385C3AF
:1010C000C6F344C3C4F300CCC2F301CCC3F30301A1
:1010D000010EC16F82C3BFF383C3C0F334D004CC0D
:1010E000C5F305CCC6F344C3C4F300CCC2F301CCB2
:1010F000C3F30301010EC16F82C3BFF383C3C0F307
:1011000035EC20F00C0104510301845D0301C56F2F
:101110000C010551030185590301C66F44C3C4F393
:101120002BC3C2F32CC3C3F30301010EC16F030130
:1011300082510C0104250301BF6F030183510C018F
:1011400005210301C06F35EC20F084C3F3FF85C394
:10115000F4FF120089C386F38AC387F3010E0301EB
:10116000846F856B0301060E826F0C0E836F88C33C
:1011700081F340DF0C010651120003018E518F11E3
:1011800003E1F36AF46A12008BC345F37CEC00F0D0
:101190008BC377F3E4DD03019051F35C0C01026F24
:1011A00003019151F4580C01036F03018E510C019E
:1011B000025D03018F510C01035901E272D1030159
:1011C000925193110DE00C0102510301925D0C014B
:1011D00003510301935904E292C302FC93C303FC3D
:1011E000355190250C01066F0301365191210C01F8
:1011F000076F065103012D5D0C01075103012E59A4
:101200000FE22B512D5D146E2E512C55156E010ED3
:101210001426000E152214500C01065F1550075BB2
:1012200006CC00FC07CC01FC0C01065103012D5D2E
:101230000C01046F075103012E590C01056F010EBB
:101240000427000E052390C306FC91C307FC8EC340
:1012500008FC8FC309FC8CC30AFC8DC30BFC030183
:101260008CC3E9FF8DC3EAFF8C2B8D23EFCF0DFCE0
:101270000C010F6B0301945109E0610E0C010D5D2F
:1012800005E30D517A0802E3E00E0D270C01200E54
:101290000E6FE850045D000E055902E204CC0EFC0E
:1012A0000E51025D000E035902E202CC0EFC0E51FB
:1012B0000301C56FC66B44C3C4F300CCC2F301CCB9
:1012C000C3F30301010EC16F0301100EBF6F0C0EBB
:1012D000C06F35EC20F00C010E51146E156A1450DD
:1012E0000027155001230E51146E156A1450045F27
:1012F0001550055B0451051106E12BC300FC2CC3FE
:1013000001FC046905690301945169E00C010C6B4F
:101310000E510C5D01E3B4D00C51EA6A100FE96E76
:101320000C0EEA22EFCF14F0610E145C13E30C51A3
:10133000EA6A100FE96E0C0EEA22EF507A080AE30F
:10134000E00E146E0C51EA6A100FE96E0C0EEA22E0
:101350001450EF260C51EA6A100FE96E0C0EEA22C7
:10136000EF500D5D1CE103018E07000E8F5B8E5167
:101370008F114AE08CC3E9FF8DC3EAFF8C2B000E6E
:101380008D23EFCF0DFC0C01010E0F6F610E0D5D73
:1013900024E30D517A0821E3E00E0D271ED008CC7E
:1013A0008EF309CC8FF30F5118E00ACC8CF30BCCE1
:1013B0008DF303010ACCE9FF0BCCEAFF8C2B000E66
:1013C0008D23EFCF0DFC610E0C010D5D05E30D517A
:1013D0007A0802E3E00E0D270F6B0C2B99D70C0156
:1013E0000C6B0E510C5D4CE20C51EA6A100FE96E69
:1013F0000C0EEA22EF500D5D2BE103018E07000E6B
:101400008F5B8E518F1117E10C010851065D166E2E
:1014100007510955176E0C5100011624146E000E69
:101420001720156E010E1426000E152214C0F3FFAE
:1014300015C0F4FF12008CC3E9FF8DC3EAFF8C2BAB
:10144000000E8D23EFCF0DFC0C01010E0F6F16D097
:1014500008CC8EF309CC8FF30F5110E00ACC8CF33B
:101460000BCC8DF303010ACCE9FF0BCCEAFF8C2BEC
:10147000000E8D23EFCF0DFC0C010F6B0C2BB1D7A1
:101480000C010E51146E156A1450025F1550035B67
:1014900003018E510C01025D03018F510C010359B0
:1014A00003E2F368F46812000E51146E156A1450CA
:1014B000062715500723EAD6030199519A1103E133
:1014C000F36AF46A120095C345F37CEC00F095C30F
:1014D00077F345DC03019B51F35C0C01026F0301C0
:1014E0009C51F4580C01036F030199510C01025DEA
:1014F00003019A510C01035901E28CD103019D5162
:101500009E110DE00C01025103019D5D0C01035180
:1015100003019E5904E29DC302FC9EC303FC3551A6
:101520009B250C01066F030136519C210C01076FAE
:10153000065103012D5D0C01075103012E590FE2E5
:101540002B512D5D146E2E512C55156E010E142647
:10155000000E152214500C01065F1550075B06CCD7
:1015600000FC07CC01FC0C01065103012D5D0C01B0
:10157000046F075103012E590C01056F010E04275A
:10158000000E05239BC306FC9CC307FC99C308FC03
:101590009AC309FC96C30AFC97C30BFC98C30CFCC6
:1015A000030196C3F6FF962B97C3F7FF972398C3C3
:1015B000F8FF98230800F5CF0EFC0C01106B030117
:1015C0009F5109E0610E0C010E5D05E30E517A0892
:1015D00002E3E00E0E270C01200E0F6FE850045DB1
:1015E000000E055902E204CC0FFC0F51025D000E03
:1015F000035902E202CC0FFC0F510301C56FC66B09
:1016000044C3C4F300CCC2F301CCC3F30301010E05
:10161000C16F0301110EBF6F0C0EC06F35EC20F0CF
:101620000C010F51146E156A145000271550012338
:101630000F51146E156A1450045F1550055B045168
:10164000051106E12BC300FC2CC301FC04690569EC
:1016500003019F5173E00C010D6B0F510D5D01E310
:10166000C8D00D51EA6A110FE96E0C0EEA22EFCFD5
:1016700014F0610E145C13E30D51EA6A110FE96E68
:101680000C0EEA22EF507A080AE3E00E146E0D51B8
:10169000EA6A110FE96E0C0EEA221450EF260D5182
:1016A000EA6A110FE96E0C0EEA22EF500E5D20E19E
:1016B00003019907000E9A5B99519A1154E096C361
:1016C000F6FF962B97C3F7FF000E972398C3F8FFFA
:1016D00098230800F5CF0EFC0C01010E106F610E6F
:1016E0000E5D2AE30E517A0827E3E00E0E2724D080
:1016F00008CC99F309CC9AF310511EE00ACC96F36A
:101700000BCC97F30CCC98F303010ACCF6FF962B85
:101710000BCCF7FF000E97230CCCF8FF98230800A2
:10172000F5CF0EFC610E0C010E5D05E30E517A083B
:1017300002E3E00E0E27106B0D2B8FD70C010D6B03
:101740000F510D5D56E20D51EA6A110FE96E0C0E54
:10175000EA22EF500E5D2FE103019907000E9A5B1C
:1017600099519A1117E10C010851065D166E075147
:101770000955176E0D5100011624146E000E172026
:10178000156E010E1426000E152214C0F3FF15C0AD
:10179000F4FF120096C3F6FF962B97C3F7FF000ED7
:1017A000972398C3F8FF98230800F5CF0EFC0C018F
:1017B000010E106F1CD008CC99F309CC9AF310518C
:1017C00016E00ACC96F30BCC97F30CCC98F30301FC
:1017D0000ACCF6FF962B0BCCF7FF000E97230CCC10
:1017E000F8FF98230800F5CF0EFC0C01106B0D2BB1
:1017F000A7D70C010F51146E156A1450025F1550D3
:10180000035B030199510C01025D03019A510C0124
:10181000035903E2F368F46812000F51146E156A5D
:101820001450062715500723D6D6A6C394F3A4C395
:1018300092F3A5C393F3A2C390F3A3C391F3010E54
:1018400003018E6F8F6B0301A10E8C6F030E8D6FE2
:10185000A0C38BF3BDEF08F00C01356B3551146E4E
:10186000156A070E145C000E155801E342D335CCFF
:1018700045F37CEC00F00C01386B366B376B0301E1
:101880004151020B03E14151040B0EE08AEC4BF095
:1018900000090AE00C01100E386F03014151040BDE
:1018A00001E0010E0C01366F030140AB13D0A0EC38
:1018B00066F0030106503B5D146E07503C59156EEF
:1018C000E83404E214500008000E155403E30C0140
:1018D000100E386F030140AD13D0A0EC66F0030189
:1018E00006503D5D146E07503E59156EE83404E213
:1018F00014500008000E155403E30C01100E386F4D
:101900000B0E03013F5D16E1A0EC66F003010650EB
:101910003D5D146E07503E59156EE83404E21450D4
:101920000008000E155406E30C01110E386F030178
:101930000C0E3F6F040E3F5D01E00DD10C01396BC1
:101940003A6B030E395D000E3A5901E304D139CCEC
:10195000E9FF3ACCEAFF140EEA02F3CFEAFFE9020C
:10196000F3CFE9FFF450EA26C40EE926040EEA227A
:10197000100EE926000EEA22EE50ED1001E1EBD048
:1019800039CCE9FF3ACCEAFF140EEA02F3CFEAFFC2
:10199000E902F3CFE9FFF450EA26C40EE926040E6B
:1019A000EA22100EE926000EEA22EECF14F0EFCF65
:1019B00015F003014251141801E0C8D04351151825
:1019C00001E0C4D0CBEC00F00A0EE66EE66A39CC3A
:1019D000E9FF3ACCEAFF140EEA02F3CFEAFFE9028C
:1019E000F3CFE9FFF450EA26C40EE926040EEA22FA
:1019F000E9CF14F0EACF15F0E9CFE6FFEACFE6FF32
:101A0000180EE66E030EE66E50EC61F0060EE15C19
:101A100002E2E16AE552E16E39CCE9FF3ACCEAFF35
:101A2000140EEA02F3CFEAFFE902F3CFE9FFF45024
:101A3000EA26C40EE926040EEA220A0EE926000E62
:101A4000EA22EECF10F3EDCF11F339CCE9FF3ACC17
:101A5000EAFF140EEA02F3CFEAFFE902F3CFE9FF4F
:101A6000F450EA26C40EE926040EEA220C0EE926FA
:101A7000000EEA22EECF0AF3EECF0BF3EECF0CF31B
:101A8000EFCF0DF303010A2B0B230C230D231A5167
:101A90001825166E1B511921176E16501025146E3D
:101AA00017501121156E14501219426F1550131949
:101AB000436F0C01120E386F0301060E3F6F39CCD5
:101AC000C5F33ACCC6F30301020ED880C557000E09
:101AD000C657140EC603F3CFC6F3C503F3CFC5F341
:101AE000F450C6270301010EC46F0C013925030110
:101AF000C26F000E0C013A210301C36F140EC30321
:101B0000F3CFC3F3C203F3CFC2F3F450C327C40E21
:101B1000C227040EC3230301010EC16F140E086E09
:101B2000096A39CC0DF03ACC0EF014EC66F006C020
:101B3000BFF307C0C0F3C40E0301BF27040EC023C8
:101B400035EC20F00401FC6BFD6B05D00C01392B4A
:101B5000000E3A23F6D60C0138510AE0365102E065
:101B6000000E01D0010E0301AE6F38CCADF300DBE7
:101B7000030140B950D0070E3F5D01E0B7D196ECAC
:101B800066F003013751065C146E38510758156E24
:101B900039510858166E3A510958176E0001800ED7
:101BA000171401E0A3D103014051070B060816E109
:101BB0004051080B01E0010E0C01386F35CC50F399
:101BC00058EC03F035CC50F358EC03F00C013851CD
:101BD00001E08CD103010E0E3F6F88D1CBEC00F0F9
:101BE0000301020EAE6F0301100EAD6FC1DA96EC69
:101BF00066F006C037F307C038F308C039F309C0F0
:101C00003AF3740E03013727350E3823060E3923B5
:101C1000000E3A236BD196EC66F003013751065C57
:101C2000146E38510758156E39510858166E3A51CE
:101C30000958176E0001800E171401E057D1CBEC44
:101C400000F003013F510C0A01E1F3D0060A01E163
:101C5000EAD0030A01E1F6D0010A01E1E0D00F0A5F
:101C600001E1D4D00C0A01E1D1D00D0A01E1C3D0C9
:101C7000030A01E1ADD0060A01E17BD0010A69E067
:101C8000030A21E0010A01E0E2D053EC46F000092A
:101C900001E1DDD00301010E3F6F24A50BD005014A
:101CA0007B6F18C378F519C379F51AC37AF58AECF6
:101CB00046F0CDD00501776F18C375F519C376F5D9
:101CC0006AEC46F0C4D005013B0E7C6F0C0E7D6FB4
:101CD000ADEC46F0000901E1BAD058EC46F000093D
:101CE00023E03BCC18F33CCC19F33DCC1AF33ECCAB
:101CF0001BF30301020E3F6F1A511825166E1B517C
:101D00001921176E16501025146E17501121156EDB
:101D100014501219426F15501319436F276B270E79
:101D2000026F036B046B65D096EC66F006C037F368
:101D300007C038F308C039F309C03AF3740E030141
:101D40003727350E3823060E3923000E3A233F6B12
:101D50007ED0A0EC66F006C03BF307C03CF3000168
:101D6000180EF36F030EF46FF0EC56F00301030E40
:101D70002DD000011C0EF76F030EF86F0001180E36
:101D8000F56F030EF66F34EC57F0000919E1A0EC83
:101D900066F003013B51065C146E3C510758156E0A
:101DA0001450025D1550035952E2060E275D06E2FB
:101DB000272BD8900237033704370537020E06D099
:101DC0000C01020E386F366B0301050E3F6F3FD0DA
:101DD0000C01020E386F010E366F040E0301275DF1
:101DE00036E3040E276F200E026FEF0E036F090E0D
:101DF000046F056B2CD0020E275D03E20C01120E5E
:101E00001DD040B71FD00C01020E07D0050E275D74
:101E10000DE3080E3F6F0C01110E386F18D0050E40
:101E2000275D10E209D0050E275D0CE20C01100EB3
:101E300005D0050E275D06E20C01110E386F010E6C
:101E4000366F05D00C01140E386F010E376F0C0180
:101E5000385147E036513FE00301272BD890023735
:101E600003370437053731510E5D0C01396F03011B
:101E700032510F590C013A6F030131510E5D32514D
:101E80000F590BE229512B5D146E2C512A55156EFA
:101E900014500C01392715503A2339CC14F03ACCA0
:101EA00015F0166A176A14500301065F1550075B98
:101EB0001650085B1750095B0C01395103011427B8
:101EC0000C013A510301152331C30EF332C30FF352
:101ED0000301AE6B03D00301010EAE6F38CCADF33E
:101EE00047D90C01375102E0E5EC16F00C01352B17
:101EF000B5D4396B3A6B030E395D000E3A5901E3E4
:101F000099D039CCE9FF3ACCEAFF140EEA02F3CFBC
:101F1000EAFFE902F3CFE9FFF450EA26C40EE9260E
:101F2000040EEA22100EE926000EEA22EE50ED1011
:101F300001E1120039CCE9FF3ACCEAFF140EEA02C3
:101F4000F3CFEAFFE902F3CFE9FFF450EA26C40E2B
:101F5000E926040EEA22120EE926000EEA22EECF4E
:101F600016F0EFCF17F016C0E6FF17C0E6FFA0ECA3
:101F700066F0E552E7CF17F0E552E7CF16F01650BE
:101F8000065C146E17500758156EDC0ED88014547A
:101F9000010E15544AE239CCC5F33ACCC6F303011D
:101FA000020ED880C557000EC657140EC603F3CFD5
:101FB000C6F3C503F3CFC5F3F450C6270301010EE2
:101FC000C46F0C0139250301C26F000E0C013A21C8
:101FD0000301C36F140EC303F3CFC3F3C203F3CFE4
:101FE000C2F3F450C327C40EC227040EC323030157
:101FF000010EC16F140E086E096A39CC0DF03ACC8F
:102000000EF014EC66F006C0BFF307C0C0F3C40EB8
:102010000301BF27040EC02335EC20F00401FC6B44
:10202000FD6B0C013907000E3A5B0C01392B000ED9
:102030003A2361D71200A7C3E9FFA8C3EAFFEECF96
:102040003CFCEECF3DFCEECF3EFCEFCF3FFCA9C306
:10205000E9FFAAC3EAFFEECF40FCEECF41FCEECF92
:1020600042FCEFCF43FC0C01446B060E456FABC343
:1020700046FCACC347FCABC3C3F0ACC3C4F03FECFD
:1020800045F0F3CF46FCF4CF47FC0C0E0001CB6FBC
:10209000CC6B00013C0EC96F0C0ECA6F5AEC45F0B8
:1020A000F3CF48FCF4CF49FC0C01481F491FABC3D8
:1020B00062FEACC363FE63EC4DF0F3CF4AFCF4CF99
:1020C0004BFC0C01F350481950E14B5149194DE1BB
:1020D0000501996B9A6BB2EC5FF0140E0E016C6FF8
:1020E0006D6B0E01280E6A6F0C0E6B6FC9EC4EF013
:1020F0000301280EB36F0C0EB46F0AEC16F00C013E
:102100003451F00BE842E842E842E842040DF35053
:10211000146E156A140E145E000E155A14C04CFC91
:102120001450146E156AE8500301AB5DAB6F155087
:10213000AC59AC6F140EAB5F000EAC5BA7C3B1F330
:10214000A8C3B2F30301280EAF6F0C0EB06FDFDA35
:1021500000090BE0ABC3B7F3ACC3B8F30301280E1F
:10216000B56F0C0EB66FA0EC17F0A3EC4BF0010CA2
:10217000CBEC00F00301ADA102D04187AD91409BB3
:10218000409D409F4193419541918AEC4BF000095D
:10219000FCE0060E0301AD1504E00C01266B276B75
:1021A000FBD00E512F1907E10F51301904E10C013A
:1021B000266B276BD9D02F510E5D30510F593FE25E
:1021C0000E512F5D0C01266F03010F5130590C0188
:1021D000276F26510301145D0C0127510301155986
:1021E00004E214C326FC15C327FC0C01265103018D
:1021F000255D0C0127510301265905E225C326FC64
:1022000026C327FC418526CCC5F327CCC6F344C39F
:10221000C4F30EC3C2F30FC3C3F30301C16B0301C5
:10222000AF0EBF6F100EC06F35EC20F00C012651C1
:1022300003010E270C01275103010F2395D00E51E6
:102240002B5D0C01246F03010F512C590C01256FDC
:10225000245103012F25146E0C0125510301302157
:10226000156E2951145C0C01266F03012A51155873
:102270000C01276F26510301145D0C012751030146
:10228000155904E214C326FC15C327FC0C01265182
:102290000301255D0C0127510301265905E225C3E1
:1022A00026FC26C327FC41850C012451265D2551BF
:1022B000275904E226CC24FC27CC25FC24CCC5F3EA
:1022C00025CCC6F344C3C4F30EC3C2F30FC3C3F398
:1022D0000301C16B0301AF0EBF6F100EC06F35EC71
:1022E00020F00C012451265D246F25512759256FBC
:1022F0002451251122E024CCC5F325CCC6F344C3D8
:10230000C4F329C3C2F32AC3C3F30301C16B03019E
:102310000E512B5D146E2C510F55156E166A176AEF
:10232000AF0E1426100E1522000E1622172214C00E
:10233000BFF315C0C0F335EC20F00C0126510301AA
:102340000E270C01275103010F232B510E5D2C5139
:102350000F590AE329512B5D146E2C512A55156E25
:1023600014500E5F15500F5B030141A715D0145197
:102370000C01261904E1030115510C0127190CE089
:10238000030125510C01261904E1030126510C011A
:10239000271902E00301AD810C012651271104E148
:1023A000030E0301AD1529E00C0126510301145F52
:1023B0000C0127510301155B0C012651271102E086
:1023C0000301AD870301AEA107D0276BF20E026FA8
:1023D0009E0E036F046B056B96EC66F006500301CE
:1023E0000225376F07500321386F08500421396FD9
:1023F000095005213A6F408936D0AEA319D0400E5E
:10240000E96E030EEA6EEF50070BE82AE850070B5F
:10241000F36EF46EF80EEF14F310EF6E0607000E75
:10242000075B085B095B010E0C01266F276B1BD055
:1024300040A919D0AEB108D0275106E02707D8909F
:10244000053304330333023396EC66F00650030180
:102450000225376F07500321386F08500421396F68
:10246000095005213A6F12C302FC13C303FC10C3C9
:1024700004FC11C305FC06C306FC07C307FC08C324
:1024800008FC09C309FC0AC30AFC0BC30BFC0CC300
:102490000CFC0DC30DFC0C010E910E930E950E97C6
:1024A000ADC30FFC146B156B2651030106270C01FD
:1024B000275103010723000E08230923ADA315D0DC
:1024C000ADB905D00C010A6B0B6B0C6B0D6B0301E6
:1024D00024A306D00C010607075B085B095B05D047
:1024E000062B07230823092324830301ADA10DD064
:1024F00024A106D00C010607075B085B095B05D029
:10250000062B072308230923248103013551335D5A
:102510003651345914E32B512D5D146E2E512C5528
:10252000156E3551335D166E34513655176E0C01EC
:102530001650145C106F17501558116F0DD0335191
:10254000355D0C01106F0301345136590C01116FC8
:10255000010E105F000E115BD9EC4BF0F3CF00FCC5
:10256000F4CF01FC0C01400EF35C000EF45803E2C2
:10257000006B016B04D0400E005F000E015B105138
:10258000005D1151015904E200CC10FC01CC11FC9A
:102590000301020EB36F0C0EB46F3CDB140E0C0182
:1025A0002627000E27230E890E9B0E8D0E9F0301FA
:1025B000ADA326D0040E0C012627000E2723020E01
:1025C000166F040E176F020E186F180E196F010E9A
:1025D000146E0E0EE96E0C0EEA6EEF50F00BE84230
:1025E000E842E842E84214240F0BF36EF46EF3461F
:1025F000F346F346F3460F0EEF14F310EF6EF4506C
:1026000060C01AFC61C01BFC62C01CFC63C01DFCE6
:1026100018C31EFC19C31FFC1AC320FC1BC321FCDA
:102620000C01226B060E236F26CC24FC27CC25FC44
:1026300026CCC3F027CCC4F03FEC45F0F3CF24FC0C
:10264000F4CF25FC0C0E0001CB6FCC6B00011A0EF1
:10265000C96F0C0ECA6F5AEC45F0F3CF12FCF4CFE1
:1026600013FC0C01121F131F0E01870E5A6F100E60
:102670005B6F12EC4DF026CC97F527CC98F5050151
:10268000060E966F0501180E946F030E956F3FECC2
:102690005FF0140E0E01716F726B0E01020E6F6F00
:1026A0000C0E706FFFEC4EF00301ADA30BD0040EC7
:1026B0000E01716F726B0E01160E6F6F0C0E706F44
:1026C000FFEC4EF00E019B0E5C6F100E5D6F1FEC69
:1026D0004DF026CC62FE27CC63FE63EC4DF0F3CFC9
:1026E00000FCF4CF01FC0E01AB0E5A6F100E5B6FB5
:1026F00012EC4DF0020E0E01716F726B0E01000EA6
:102700006F6F0C0E706FFFEC4EF0D8EF4CF0AFC354
:10271000E9FFB0C3EAFF020EE926000EEA22EE50FE
:10272000ED1001E1000C0C01FE0E016FB1C3E9FFD9
:10273000B2C3EAFF020EE926000EEA22EECF18F03D
:10274000EFCF19F0B1C3E9FFB2C3EAFF1850EE248E
:10275000166E1950EE20176EAFC3E9FFB0C3EAFF43
:102760001650EE24146E1750EE20156EAFC3E9FF1D
:10277000B0C3EAFF020EE926000EEA221450EE185A
:10278000026F1550EE18036F006B0051146E156A3E
:10279000070E145C000E155862E200CC45F37CEC89
:1027A00000F00D0E03013F5D57E0040E3F5D15E1A3
:1027B000AFC3E9FFB0C3EAFF020EE926000EEA222A
:1027C000EECF14F0EFCF15F01450421945E115503B
:1027D000431942E100CC01FC3FD00C01025103013E
:1027E00042193AE10C0103510301431935E1CBECE5
:1027F00000F0AFC3E9FFB0C3EAFF020EE926000E06
:10280000EA22EECF14F0EFCF15F0030112511418A5
:1028100023E11351151820E1AFC3E9FFB0C3EAFF6C
:10282000EECF16F0EFCF17F01051161815E1115139
:10283000171812E1B1C3E9FFB2C3EAFFEE5018194D
:102840000BE1EE50191908E1EE501A1905E1EE50AE
:102850001B1902E101E1010C0C01002B96D7FE0EC1
:10286000015D3CE001CC45F37CEC00F0CBEC00F0EA
:10287000FE0E0C01015D32E002CC42F303CC43F3C7
:102880000A0EE66EE66AB1C3E6FFB2C3E6FF180EB3
:10289000E66E030EE66E50EC61F0146E060EE15C1F
:1028A00002E2E16AE552E16E1450AFC3E9FFB0C342
:1028B000EAFFEECF10F3EDCF11F3AFC3E9FFB0C3E2
:1028C000EAFF020EE926000EEA22EECF12F3EDCF68
:1028D00013F329C30EF32AC30FF3010CAFC3E9FFAF
:1028E000B0C3EAFF0D0EE926000EEA22EF50020BFC
:1028F00001E1000C0401FC51FD1101E0000C0C0190
:10290000046B056B030E045D000E055901E39BD0BB
:1029100004CCE9FF05CCEAFF140EEA02F3CFEAFF8C
:10292000E902F3CFE9FFF450EA26C40EE926040ECB
:10293000EA22100EE926000EEA22EE50ED1001E127
:1029400082D004CCE9FF05CCEAFF140EEA02F3CFF3
:10295000EAFFE902F3CFE9FFF450EA26C40EE926C4
:10296000040EEA22100EE926000EEA22EECF14F041
:10297000EFCF15F0AFC3E9FFB0C3EAFF020EE926BF
:10298000000EEA22EECF16F0EFCF17F01650141813
:1029900055E11750151852E104CCE9FF05CCEAFFC8
:1029A000140EEA02F3CFEAFFE902F3CFE9FFF45095
:1029B000EA26C40EE926040EEA220A0EE926000ED3
:1029C000EA22EECF14F0EFCF15F0AFC3E9FFB0C3AA
:1029D000EAFFEECF16F0EFCF17F0165014182EE1E5
:1029E000175015182BE1B1C3E9FFB2C3EAFFEECFD0
:1029F00014F0EECF15F0EECF16F0EFCF17F004CCB9
:102A0000E9FF05CCEAFF140EEA02F3CFEAFFE90280
:102A1000F3CFE9FFF450EA26C40EE926040EEA22B9
:102A2000EE500001141808E1EE50151805E1EE50C3
:102A3000161802E1EE50171801E1CAD00C01042B60
:102A4000000E05235FD7006B0051146E156A070E48
:102A5000145C000E155801E3DCD000CC45F37CEC8F
:102A600000F0030140A7D2D0CBEC00F0AFC3E9FFE8
:102A7000B0C3EAFF020EE926000EEA22EECF14F000
:102A8000EFCF15F014500301121901E0BFD015501B
:102A9000131901E0BBD00A0EE66EE66AB1C3E6FF89
:102AA000B2C3E6FF04CCE9FF05CCEAFF140EEA024C
:102AB000F3CFEAFFE902F3CFE9FFF450EA26C40EB0
:102AC000E926040EEA22E9CF14F0EACF15F0E9CFA7
:102AD000E6FFEACFE6FF50EC61F0166E060EE15C11
:102AE00002E2E16AE552E16E1650AFC3E9FFB0C3FE
:102AF000EAFFEECF14F0EFCF15F004CCE9FF05CCE0
:102B0000EAFF140EEA02F3CFEAFFE902F3CFE9FF8E
:102B1000F450EA26C40EE926040EEA220A0EE9263B
:102B2000000EEA2214C0EEFF15C0EDFFAFC3E9FFAF
:102B3000B0C3EAFF040EE926000EEA22EECF14F03D
:102B4000EECF15F0EECF16F0EFCF17F004CCE9FF83
:102B500005CCEAFF140EEA02F3CFEAFFE902F3CF55
:102B6000E9FFF450EA26C40EE926040EEA220C0E10
:102B7000E926000EEA2214C0EEFF15C0EEFF16C0D3
:102B8000EEFF17C0EEFFAFC3E9FFB0C3EAFF020ECE
:102B9000E926000EEA22EECF14F0EFCF15F004CCB8
:102BA000E9FF05CCEAFF140EEA02F3CFEAFFE902DF
:102BB000F3CFE9FFF450EA26C40EE926040EEA2218
:102BC000100EE926000EEA2214C0EEFF15C0EDFF3C
:102BD000A0EC66F007C015F004CCE9FF05CCEAFFD5
:102BE000140EEA02F3CFEAFFE902F3CFE9FFF45053
:102BF000EA26C40EE926040EEA22120EE926000E89
:102C0000EA2206C0EEFF15C0EDFF000C0C01002B00
:102C10001BD7000CB3C3E9FFB4C3EAFFEECFC3F088
:102C2000EDCFC4F03FEC45F0F3CF14F0F4CF15F046
:102C3000B3C3E9FFB4C3EAFFF3CFEEFF15C0EDFF66
:102C4000B3C3E9FFB4C3EAFF020EE926000EEA228D
:102C5000EECFC3F0EDCFC4F03FEC45F0F3CF14F06E
:102C6000F4CF15F0B3C3E9FFB4C3EAFF020EF3CF0C
:102C7000EBFF030E15C0EBFFB3C3E9FFB4C3EAFFDC
:102C8000040EE926000EEA22EECFC5F0EECFC6F024
:102C9000EECFC7F0EFCFC8F044EC45F006C014F01B
:102CA00007C015F008C016F009C017F0B3C3E9FF5C
:102CB000B4C3EAFF040EE926000EEA2206C0EEFFC6
:102CC00015C0EEFF16C0EEFF17C0EEFFB3C3E9FF5D
:102CD000B4C3EAFF080EE926000EEA22EECFC5F0E3
:102CE000EECFC6F0EECFC7F0EFCFC8F044EC45F022
:102CF00006C014F007C015F008C016F009C017F0A0
:102D0000B3C3E9FFB4C3EAFF080EE926000EEA22C6
:102D100006C0EEFF15C0EEFF16C0EEFF17C0EEFFB7
:102D2000B3C3E9FFB4C3EAFF0E0EE926000EEA22A0
:102D3000EECFC3F0EDCFC4F03FEC45F0F3CF14F08D
:102D4000F4CF15F0B3C3E9FFB4C3EAFF0E0EF3CF1F
:102D5000EBFF0F0E15C0EBFFB3C3E9FFB4C3EAFFEF
:102D6000100EE926000EEA22EECFC3F0EDCFC4F03C
:102D70003FEC45F0F3CF14F0F4CF15F0B3C3E9FF07
:102D8000B4C3EAFF100EF3CFEBFF110E15C0EBFF3B
:102D9000B3C3E9FFB4C3EAFF120EE926000EEA222C
:102DA000EECFC3F0EDCFC4F03FEC45F0F3CF14F01D
:102DB000F4CF15F0B3C3E9FFB4C3EAFF120EF3CFAB
:102DC000EBFF130E15C0EBFF1200CBEC00F012C3AB
:102DD00042F313C343F329C32FF32AC330F329C3A8
:102DE00031F32AC332F32BC333F32CC334F32BC395
:102DF00035F32CC336F303014051080B02E0040EF7
:102E000001D00D0E3F6F4091409340954099409BFB
:102E1000409D409F41914193419541974189249123
:102E200024932497249929C30EF32AC30FF39EEC0D
:102E300041F0F3CF06F3F4CF07F39EEC41F0F3CF6C
:102E400008F3F4CF09F3030122692369010E146F1B
:102E5000156B12000C0E0501996F9A6BB2EC5FF0C6
:102E6000C7EC4EF00C01006FF00E0015E840E84092
:102E70003F0B146E156A140E145E000E155A14C022
:102E800000FC145058E0070E0E016C6F6D6B0E01C4
:102E90006A6B6B6BC9EC4EF00C0100510007000926
:102EA0004AE0C7EC4EF00C01016FE85044E0010528
:102EB000F3E0020E015D28E1030E005D3CE3026BCE
:102EC000036BC7EC4EF00C01016F040E015D08E1CD
:102ED000C7EC4EF00C01036FC7EC4EF00C01026F13
:102EE000180E025D020E035926E3B40ED880025577
:102EF000050E035504E2B40EF36E050E1FD002CC8E
:102F0000F3FF03CCF4FF1200020E005D14E3C7ECE4
:102F10004EF00C01016FE850005D0DE301510E0110
:102F20006C6F6D6B0E016A6B6B6BC9EC4EF00C0134
:102F30000151005FB1D7180EF36E020EF46E12004D
:102F4000B5C3E9FFB6C3EAFF0D0EE926000EEA227B
:102F5000EFCF79FCB5C3E9FFB6C3EAFF080EE92657
:102F6000000EEA22EECF7AFCEECF7BFCEECF7CFCAB
:102F7000EFCF7DFCB5C3E9FFB6C3EAFF040EE92637
:102F8000000EEA22EECF7EFCEECF7FFCEECF80FC7F
:102F9000EFCF81FC030140914093409540B913D09D
:102FA00096EC66F006C037F307C038F308C039F373
:102FB00009C03AF3740E03013727350E3823060E85
:102FC0003923000E3A233F51050A42E0010A08E086
:102FD000B7C382FCB8C383FC0C0179A1C5D0C1D0B2
:102FE0000C0179B533D079A910D07ACC06F37BCC1B
:102FF00007F37CCC08F37DCC09F30301AE6B03012E
:10300000040EAD6FB8EC10F021D079A31FD07ECCA8
:103010000AF37FCC0BF380CC0CF381CC0DF30301CE
:103020000A2B000E0B230C230D2314DFF3CF25F303
:10303000F4CF26F30301010EAE6F0301120EAD6F44
:10304000B8EC10F00301060E3F6F1200E5EF16F02A
:103050000C0179B5120079A932D07A0EE96E0C0E06
:10306000EA6EEE500301061908E1EE50071905E17A
:10307000EE50081902E1EE50091921E006C37EFC6A
:1030800007C37FFC08C380FC09C381FC7ACC06F32C
:103090007BCC07F37CCC08F37DCC09F30301010E54
:1030A000AE6F0301040EAD6FB8EC10F07ECC06F3EA
:1030B0007FCC07F380CC08F381CC09F312000C011C
:1030C00079A323EF1FF07ECC0AF37FCC0BF380CCE7
:1030D0000CF381CC0DF303010A2B000E0B230C2300
:1030E0000D23B5C3E9FFB6C3EAFF0E0EE926000EB5
:1030F000EA22EECF14F3EDCF15F3ACDEF3CF25F3D8
:10310000F4CF26F30C0179A920D00301010EAE6F94
:103110000301100EAD6FB8EC10F00301070E3F6F06
:1031200096EC66F006C037F307C038F308C039F3F1
:1031300009C03AF3740E03013727350E3823060E03
:103140003923000E3A23409912000301010EAE6F9D
:103150000301120EAD6FB8EC10F00301060E3F6FC5
:103160001200822B000E832379A303D0822B000E42
:10317000832303013551335D3651345914E32B5108
:103180002D5D146E2E512C55156E3551335D166E16
:1031900034513655176E0C011650145C776F17506A
:1031A0001558786F0DD03351355D0C01776F0301E1
:1031B000345136590C01786F010E775F000E785B41
:1031C0000A0EE96E030EEA6EEE507E5D716FEE50F0
:1031D0007F59726FEE508059736FEE508159746F42
:1031E00071CC75FC72CC76FC846B8251831101E149
:1031F00076D07751781101E18BD0800E74150FE1F4
:1032000077CC14F078CC15F0166A176A1450715DFB
:103210001550725916507359175074593BE382CCAC
:1032200014F083CC15F0166A176A710EE96E0C0E55
:10323000EA6EEE501426EE501522EE501622EE5095
:1032400017221734000E171809E6D880000E145400
:10325000000E1554000E1654000E17541DE2825134
:10326000775D186E78518355196E1A6A1B6A19AE0C
:1032700002D01A681B681B507419E8AE02D074356E
:1032800008D07151185C7251195873511A58745101
:103290001B5802E3010E846F77CC14F078CC15F044
:1032A000166A176A74511718E8AE02D0173408D09E
:1032B0001450715D15507259165073591750745946
:1032C00027E275518225186E76518321196EE834F4
:1032D0001FE218500008000E19541AE217D071515D
:1032E00072117311741112E0800E741511E177CC14
:1032F00014F078CC15F0166A176A1450715D1550E9
:103300007259165073591750745902E2010E846FA6
:1033100084510BE179B523EF1FF00301010EAE6F6D
:103320000301100EAD6FB8EF10F0060E791502E034
:10333000E5EF16F079A9120003013F510C0A01E1F3
:1033400067D20B0A3EE00F0A3CE0010A3AE0020AAB
:1033500038E0010A36E00C0A01E070D27A0EE96E1C
:103360000C0EEA6EEE50061908E1EE50071905E161
:10337000EE50081902E1EE50091921E006C37EFC67
:1033800007C37FFC08C380FC09C381FC7ACC06F329
:103390007BCC07F37CCC08F37DCC09F30301010E51
:1033A000AE6F0301040EAD6FB8EC10F07ECC06F3E7
:1033B0007FCC07F380CC08F381CC09F31200070E11
:1033C0003F6F0E512F5D0C016F6F03010F5130598C
:1033D0000C01706F800E70150CE0030129512B5DFC
:1033E000146E2C512A55156E14500C016F27155070
:1033F00070236FCC14F070CC15F0166A176A060EA5
:10340000E96E030EEA6EEE5014246B6FEE50152039
:103410006C6FEE5016206D6FEE5017206E6F7A0EA7
:10342000E96E0C0EEA6EEE506B5D146EEE506C5948
:10343000156EEE506D59166EEE506E59176E0001F6
:10344000800E171407E00301AE6B0301100EAD6F81
:10345000B8EF10F0030131510E5D146E0F5132556B
:10346000156E166A176A15AE02D016681768060E32
:10347000E96E030EEA6E1450EE5C0C016B6F155092
:10348000EE586C6F1650EE586D6F1750EE586E6F09
:10349000030131510E5D32510F5911E229512B5D5B
:1034A000146E2C512A55156E166A176A14500C01A9
:1034B0006B5F15506C5B16506D5B17506E5B6B0E3F
:1034C000E96E0C0EEA6EEE500C017A5D6B6FEE50F9
:1034D0007B596C6FEE507C596D6FEE507D596E6F5D
:1034E000E834000E6E1909E6D880000E6B55000E08
:1034F0006C55000E6D55000E6E5501E386D003012C
:1035000029512B5D146E2C512A55156E166A176AB7
:103510000C016B51145C6C5115586D5116586E515D
:10352000175873E3030124972499419131C36FFC29
:1035300032C370FC0C016B51030131270C016C513B
:10354000030132230C016F5103010E5D0C01705118
:1035500003010F590BE331510E5D32510F5935E222
:103560000E51315D146E32510F551FD029512B5D14
:10357000146E2C512A55156E0E5114240C016F6FC8
:1035800003010F5115200C01706F030131510C0123
:103590006F5D030132510C01705917E26F51030145
:1035A000315D146E32510C017055156E00011450CE
:1035B000030106270001155003010723000E08230D
:1035C000092331C30EF332C30FF303012B51315DD5
:1035D0002C5132590AE329512B5D146E2C512A5576
:1035E000156E1450315F1550325B2B510E5D2C510E
:1035F0000F594AE329512B5D146E2C512A55156E33
:1036000014500E5F15500F5B3FD003010E5131195E
:1036100002E10F51321938E024A735D024A932D065
:1036200031510E5D146E0F513255156E166A176AC0
:1036300015AE02D0166817681450065F1550075B68
:103640001650085B1750095B31510E5D32510F590E
:1036500014E229512B5D146E2C512A55156E166AF1
:10366000176A15AE02D0166817681450065F155019
:10367000075B1650085B1750095B31C30EF332C36A
:103680000FF34185248924872F51311932E13051BC
:1036900032192FE141B715D096EC66F006C037F32A
:1036A00007C038F308C039F309C03AF3740E0301B8
:1036B0003727350E3823060E3923000E3A2340995A
:1036C00018D0060EE96E030EEA6EEE500C017A1960
:1036D00010E1EE507B190DE1EE507C190AE1EE503D
:1036E0007D1907E106E103012451010B02E0409935
:1036F00041977A0EE96E0C0EEA6EEE500301065DFC
:10370000146EEE500759156EEE500859166EEE50B5
:103710000959176EB5C3E9FFB6C3EAFF0E0EE926D5
:10372000000EEA220C011450EE5C856F1550EE5825
:10373000866F03011451151106E10C0185518611A4
:1037400002E00301418385CC14F386CC15F3080E07
:1037500003013F5D2DE1060EE96E030EEA6EEE50A9
:103760000C017A196BE1EE507B1968E1EE507C197F
:1037700065E1EE507D1962E161E103012451010B25
:103780005DE096EC66F006C037F307C038F308C07A
:1037900039F309C03AF3BA0E030137271A0E38235A
:1037A000030E3923000E3A234089090E3F6F46D09D
:1037B000090E3F5D14E10C0179B140D07ACC06F3DB
:1037C0007BCC07F37CCC08F37DCC09F30301AE6B13
:1037D0000301140EAD6FB8EC10F0E5EF16F00A0E11
:1037E0003F5D2CE1060EE96E030EEA6EEE500C0111
:1037F0007A190DE1EE507B190AE1EE507C1907E1D0
:10380000EE507D1904E101E01ED3E5EC16F0120044
:10381000060EE96E030EEA6EEE500C017A190DE108
:10382000EE507B190AE1EE507C1907E1EE507D194C
:1038300004E101E008D3E5EC16F012000C0179BBBD
:1038400012000B0E03013F5D01E112000A0E3F5D05
:1038500001E112000C0E3F5D01E11200B751B811F9
:1038600001E14CD20C01763504E275510008000EDE
:10387000765501E2E8D0B5C3E9FFB6C3EAFF0C0E06
:10388000E926000EEA22EF50F00BE842E842E84257
:10389000E842040DF350146E156A7551F35C05018E
:1038A000996F0C017651155805019A6FB2EC5FF0D3
:1038B0000C0175510301B7270C0176510301B823A0
:1038C000B7510C01775D0301B8510C01785904E23E
:1038D00077CCB7F378CCB8F30301B7510A27B851C6
:1038E0000B23000E0C230D233351B725146E3451D6
:1038F000B821156E14502D5D15502E5946E23351E6
:103900002D5D0C016F6F030134512E590C01706F46
:10391000010E6F27000E70236FCCC5F370CCC6F379
:103920000301C46B0301C269C36944C3C1F333C358
:10393000BFF334C3C0F399DB0C016F510301B75DD2
:103940000301C56F0C0170510301B8590301C66F23
:103950000301C46B0301C269C36944C3C1F32BC330
:10396000BFF32CC3C0F381DB0C016F510301B75DC2
:10397000146EB8510C017055156E03012B511424AF
:10398000336F2C511520346F15D0B7C3C5F3B8C3AE
:10399000C6F30301C46B0301C269C36944C3C1F325
:1039A00033C3BFF334C3C0F360DB0301B751332724
:1039B000B8513423221D01E1231D01E19FD1B751EC
:1039C000225FB851235B165122250C016F6F030152
:1039D000175123210C01706F800E701502E0030156
:1039E0002FD00301233504E222510008000E235595
:1039F00001E284D10C016F5103010A270C017051BF
:103A000003010B23000E0C230D230C016F51030146
:103A100033270C0170510301342333512D5D345190
:103A20002E590EE22B512D5D146E2E512C55156E14
:103A3000010E1426000E15221450335F1550345B0E
:103A4000226923695BD1763501E358D175510008AD
:103A5000000E765501E352D10301B7510C017525D3
:103A6000146E0301B8510C017621156E1450775D68
:103A70001550785909E27551775D0301B76F0C0154
:103A8000765178590301B86FB5C3E9FFB6C3EAFFB1
:103A90000C0EE926000EEA22EF50F00BE842E84255
:103AA000E842E842040DF3500501996F9A6BB2ECBD
:103AB0005FF0030133510C017525166E030134517B
:103AC0000C017621176E16500301B725146E17509E
:103AD000B821156E14502D5D15502E596BE23351DF
:103AE0002D5D146E2E513455156E010E1426000EE8
:103AF00015220C017551145C6F6F76511558706F5B
:103B0000800E701530E16FCCC5F370CCC6F30301A5
:103B1000C46B0301C269C36944C3C1F303013351D8
:103B20000C0175250301BF6F030134510C0176218F
:103B30000301C06F9ADA0C016F510301B75D0301F5
:103B4000C56F0C0170510301B8590301C66F030121
:103B5000C46B0301C269C36944C3C1F32BC3BFF380
:103B60002CC3C0F33ED0B7C3C5F3B8C3C6F303013B
:103B7000C46B0301C269C36944C3C1F30301335178
:103B80000C017525146E030134510C017621156E5C
:103B900003012B512D5D166E2E512C55176E010E03
:103BA0001626000E172203011650145CBF6F175023
:103BB000155816D0B7C3C5F3B8C3C6F30301C46B19
:103BC0000301C269C36944C3C1F3030133510C014A
:103BD00075250301BF6F030134510C0176210301E8
:103BE000C06F43DA0301221D0BE1231D09E175CCEF
:103BF00022F376CC23F3B7C316F3B8C317F37ED002
:103C000022510C01755D030123510C0176593DE2EF
:103C100075510301B725146E0C0176510301B821CB
:103C2000156E22511625166E23511721176E14504A
:103C3000165C155017580FE30C0175510301B72599
:103C4000186E0C0176510301B821196E2251185CCF
:103C50002351195805E2B7C316F3B8C317F310D0B0
:103C600022511625146E23511721156E0C01755122
:103C7000145C0301166F0C01765115580301176F80
:103C800075CC22F376CC23F339D075510301B725D7
:103C9000146E0C0176510301B821156E22511625C0
:103CA000166E23511721176E1450165C15501758B5
:103CB00025E222511625146E23511721156E0C0191
:103CC0007551145C7651155819E375510301B725E8
:103CD000186E0C0176510301B821196E2251185C3F
:103CE000166E23511958176E1651165C146E175123
:103CF0001758156E14501627155017230C018251B2
:103D0000831124E0070E03013F5D04E033C335F364
:103D100034C336F340AF0BD00301010EAE6F030185
:103D2000100EAD6FB8EC10F0CBEC00F00FD0408F60
:103D300040BD0CD0408DA0EC66F006C03DF307C03E
:103D40003EF30F0E03013D27000E3E230C0179A127
:103D50007AD00AC314F00BC315F00CC316F00DC3D0
:103D600017F0142A000E15221622172282CC18F002
:103D700083CC19F01A6A1B6A7E0EE96E0C0EEA6E8D
:103D8000EE501826EE501922EE501A22EE501B2249
:103D90001450181858E11550191855E116501A18F2
:103DA00052E117501B184FE14EE103010A2B000EA0
:103DB0000B230C230D233F51090A34E0010A1CE0B8
:103DC0000F0A0CE0010A37E10C0E3F6F0301010EF0
:103DD000AE6F0301110EAD6FB8EF10F00B0E3F6F19
:103DE000A0EC66F006C03DF307C03EF31F0E0301D2
:103DF0003D27000E3E231FD0060EE96E030EEA6E2D
:103E0000EE500C017A190AE1EE507B1907E1EE50F1
:103E10007C1904E1EE507D1901E104E003010A0E72
:103E20003F6F09D00301AE6B0301100EAD6FB8EC0C
:103E300010F0E5EF16F00301010EAE6F0301100E56
:103E4000AD6FB8EC10F01200B9C345F37CEC00F094
:103E50000301BA51BB1103E1010EBA6FBB6B2951CB
:103E60002D5D0C01286F03012A512E590C01296F79
:103E7000010E285F000E295B0301BA51BC25146EA8
:103E8000BB51BD21156E0C011450285D15502959E8
:103E900001E2000CCBEC00F0030E0301BE1502E1C1
:103EA000030EBE13BCC32CFCBDC32DFCBA51BC25F4
:103EB000146EBB51BD21156E14500C01285F1550B6
:103EC000295B0301BEA313D0BEA10CD028CC14F0F3
:103ED00029CC15F0D8901532143214500C012C272F
:103EE000155004D00C0128512C2729512D230301F2
:103EF00029510C012C25286F03012A510C012D2179
:103F0000296F010E2827000E292333C32AFC34C34E
:103F10002BFC0301221D01E1231D22E02251162565
:103F2000146E23511721156E14500C012A271550B9
:103F30002B232A5103012D5D0C012B5103012E5916
:103F40000FE22B512D5D146E2E512C55156E010E66
:103F50001426000E152214500C012A5F15502B5BFD
:103F60000C012A510301355D0C012B510301365917
:103F70000CE20C0128510301355D0C0129510301AC
:103F800036591DE2BEA513D0000C35510C012A5D37
:103F9000030136510C012B590AE2285103012B5D14
:103FA0000C01295103012C590AE2BEB5000C28CCA2
:103FB00035F329CC36F328CC33F329CC34F3030181
:103FC00035510C012A5D030136510C012B5930E2A9
:103FD000040E0301BE152CE02B510C012A5D0301D8
:103FE000C56F03012C510C012B590301C66F44C34B
:103FF000C4F32BC3C2F32CC3C3F344C3C1F328CC13
:10400000BFF329CCC0F331D803013551335D3651AC
:1040100034590EE20C01285103012B5D146E2C5112
:104020000C012955156E14500301335F1550345B94
:1040300028CC2BF329CC2CF329C30EF32AC30FF37E
:1040400029C331F32AC332F329C32FF32AC330F330
:10405000070E03013F5D08E10301010EAE6F03018E
:10406000100EAD6FB8EC10F0010C0301C45133E039
:10407000010A01E01200C1511AE0010A01E0120038
:10408000C5C3E6FFC6C3E6FFC2C3E6FFC3C3E6FF80
:10409000BFC3E6FFC0C3E6FF50EC61F0146E060E2E
:1040A000E15C02E2E16AE552E16E14501200BF1DCC
:1040B00001E1C01D06E0BFC35AFEC0C35BFE12ECA7
:1040C0004DF0C5C371FEC6C372FEC2C36FFEC3C34B
:1040D00070FEFFEF4EF0C15117E0010A01E012003F
:1040E000C21D01E1C31D06E0C2C35CFEC3C35DFE89
:1040F0001FEC4DF0C5C36CFEC6C36DFEBFC36AFEA8
:10410000C0C36BFEC9EF4EF0C5C368FEC6C369FEEF
:10411000C2C366FEC3C367FEBFC364FEC0C365FE01
:10412000EDEC4DF0C1EC4EF00009FCE01200030193
:10413000C9511CE0010A01E01200CDC3E6FFCEC365
:10414000E6FFCAC3E6FFCBC3E6FFCCC3E6FFC7C3A7
:10415000E6FFC8C3E6FF7BEC61F0146E070EE15C7E
:1041600002E2E16AE552E16E14501200C71D01E15E
:10417000C81D06E0C7C35AFEC8C35BFE12EC4DF073
:10418000100E0C01106F116B0301CD51CE1145E0E3
:104190000C0110510301CD5D0C0111510301CE59E9
:1041A00004E2CDC310FCCEC311FC10CCE6FF11CC51
:1041B000E6FFCAC3E6FFCBC3E6FFCCC3E6FF000EB3
:1041C000E66E0C0EE66E7BEC61F0146E070EE15CA1
:1041D00002E2E16AE552E16E145010CC71FE11CC9E
:1041E00072FE0E01000E6F6F0C0E706FFFEC4EF042
:1041F00010CC14F011CC15F0166A14500301CA2724
:104200001550CB231650CC230C0110510301CD5F68
:0C4210000C0111510301CE5BB7D7120066
:04421C000501EFB3F6
:10422000000CEF6BEF83010EEE6F0F012A6B286B12
:10423000220EE66EE66AE66A000EE66E0F0EE66E87
:104240009EEC61F0050EE15C02E2E16AE552E16E8E
:10425000190E0F01206F216B010C0501EFB303D084
:10426000F368F4681200020EEE5D02E158EC46F0CD
:10427000FE0E0501ED5D07E0EDC550F358EC03F0CF
:104280000501FE0EED6FEF93EE6BEFA503D0F36A21
:10429000F46A12002BCFF3FF2CCFF4FF12000501BC
:1042A000EE51050A02E1D7EF29F0010A01E163D1DD
:1042B000070A01E13BD1010A01E100D1030A05E04F
:1042C000010A02E1DFEF29F01200EFA7120053EC20
:1042D00046F0000901E112000F010051011104E153
:1042E00000510111021108E01EA103D00501010EC9
:1042F000C2D00501010ECED009510A1115E01E51A0
:10430000080B12E1400EE66E09CFE6FF0ACFE6FF8A
:10431000B8EC61F0E552E552E552F3CF00FFF4CF7F
:1043200001FF0F011E911DD009510A110B1119E057
:104330001E51080B16E0400EE66E09CFE6FF0ACFCD
:10434000E6FF0BCFE6FFCCEC61F0E552E552E5521B
:10435000E55207C000FF08C001FF09C002FF0F01BE
:104360001E810051011139E100510111021135E1A5
:104370000C510D1115E01E51100B12E1400EE66EAE
:104380000CCFE6FF0DCFE6FFB8EC61F0E552E55249
:10439000E552F3CF00FFF4CF01FF0F011E911DD0B6
:1043A0000C510D110E1119E01E51100B16E0400EAC
:1043B000E66E0CCFE6FF0DCFE6FF0ECFE6FFCCECAE
:1043C00061F0E552E552E552E55207C000FF08C032
:1043D00001FF09C002FF0F011E810051011139E1E7
:1043E00000510111021135E10F51101115E01E515C
:1043F000200B12E1400EE66E0FCFE6FF10CFE6FF76
:10440000B8EC61F0E552E552E552F3CF00FFF4CF8E
:1044100001FF0F011E911DD00F511011111119E054
:104420001E51200B16E0400EE66E0FCFE6FF10CFB8
:10443000E6FF11CFE6FFCCEC61F0E552E552E55224
:10444000E55207C000FF08C001FF09C002FF0F01CD
:104450001E810051011107E100510111021103E118
:1044600058EC46F05AD01EA110D0002B000E0123AC
:10447000022305010F0E7B6F00CF78F501CF79F590
:1044800002CF7AF58AEC46F00CD0002B000E012307
:1044900005010F0E776F00CF75F501CF76F56AEC49
:1044A00046F096EC66F006C02DFF07C02EFF08C050
:1044B0002FFF09C030FF0501EE2B12000501220E6F
:1044C0007C6F0F0E7D6FADEC46F0000922E196EC9B
:1044D00066F00F012D51065C146E2E510758156EB3
:1044E0002F510858166E30510958176ED880AC0EEF
:1044F0001454B90E1554030E1654000E175402E34B
:10450000DFEF29F02B6B800E2C6F0501EE6B58EF5F
:1045100046F058EC46F0000907E10F012B6B800EC6
:104520002C6F0501EE6B12000501EE2B0301090E45
:104530004D6F20CF4BF321CF4CF30301030E4A6F95
:1045400022CF46F323CF47F324CF48F325CF49F3B7
:104550006DEC02F00501ED6FFE0EED5D01E1120064
:10456000EE2B96EC66F006C02DFF07C02EFF08C0AC
:104570002FFF09C030FFEDC54FF34FEC03F00009EA
:104580002CE10501EF51200B1FE196EC66F00F01C5
:104590002D51065C146E2E510758156E2F51085878
:1045A000166E30510958176EE834000E171809E6D8
:1045B000D880900E1454F70E1554040E1654000EA5
:1045C000175402E3DFEF29F00F01010E2B6F800E6D
:1045D0002C6F0501050EEE6F12000501EF8BEDC586
:1045E00077F3AFEC06F0F3CF14F0F4CF15F0F350FF
:1045F000F41001E1BBD00301350E796F0C0E7A6F18
:10460000EDC578F3D9EC06F00F012A51050A2FE029
:10461000010A26E0070A12E0030A04E0010A02E0A8
:10462000030ADDE12ACFE9FFEA6AE9BEEA68310E52
:10463000E9260F0EEA2235CCEFFF17D00C013551D9
:104640000D0A0AE0200A05E00D0AC9E10501EF9113
:104650000BD00501EF8108D00F01050E2A6FBFD7DF
:104660000D0E0C01355DBBE10F012A2BB8D70A0EE8
:104670000C01355D74E10F012A6B0501EFB1AFD775
:104680000F01346B310EE66E0F0EE66EC2EC64F075
:10469000E552E552F3CF2BFFF4CF2CFF0F01285149
:1046A0001C0A4CE0040A42E0180A34E00A0A32E02C
:1046B000070A30E01C0A2EE0040A2CE01D0A24E060
:1046C0000C0A1BE0020A19E0040A01E088D7C80EB0
:1046D0002B5D000E2C5940E32B0ED8802B55010E7C
:1046E0002C553AE30351041104E10351041105115F
:1046F00002E0030E32D0090E30D04E0E2B192CE101
:10470000010E2C1919E028D0EB0E2B1925E12C51A4
:1047100013E022D0C80E2B5D000E2C591DE32B0E8A
:10472000D8802B55010E2C5507E216D0620E2B199E
:1047300013E1010E2C1910E1282B51D7C80E2B5D67
:10474000000E2C5908E32B0ED8802B55010E2C554A
:1047500002E30501EF850F011D0E286F40D70D0EF6
:10476000355D01E13CD70F012A0739D7EDC560F36C
:10477000F2EC03F0F3CF14F0F4CF15F0400EF35C3D
:10478000000EF45801E212000F0128511E0A02E146
:10479000ACEF29F0030A02E1A5EF29F0060A02E1D5
:1047A0000CEF29F0010A02E1E4EF28F0030A01E12D
:1047B00066D30E0A01E154D3010A01E112D3050ABE
:1047C00001E1D4D2010A01E192D21D0A01E156D2DF
:1047D000010A01E114D2020A01E1C8D11C0A01E177
:1047E000C5D1040A01E1C2D11F0A01E184D1020A44
:1047F00001E13DD10E0A01E1AAD0020A1EE0060A3B
:1048000015E0020A01E0120003510411051107E14D
:104810000301770E726FAA0E736F000EE6D10301CB
:10482000660E726FAA0E736F000EDFD10301590E70
:10483000726FAA0E736F000ED8D11EA316D003CFCD
:1048400035FF04CF36FF05CF37FF03CFE6FF04CF98
:10485000E6FF05CFE6FF1BEC62F0E552E552E552BC
:1048600007C036FC08C037FC10D003CF3BFF04CF95
:104870003CFF03CFE6FF04CFE6FF0DEC62F0E5520C
:10488000E552F3CF36FCF4CF37FC0C01365137112B
:1048900001E1E6D0356B3651355D000E37552DE21E
:1048A0003551146E156A030E145C000E155825E27E
:1048B0000F011EA30DD035CFF6FF352B36CFF7FFF6
:1048C000000E362337CFF8FF37230800F55008D005
:1048D0003BCFE9FF3CCFEAFF3B2B000E3C23EF50E0
:1048E000E66E0C013551EA6A380FE96E0C0EEA22C9
:1048F000E552E750EF6E352BCED73551146E156A61
:104900001450365F1550375B040E0001B46FB56B61
:104910000001380EB26F0C0EB36F0C01355100015F
:10492000B06FB16B0001380EAE6F0C0EAF6FBAEC0A
:1049300043F0040E0301666F676B0301380E646F6A
:104940000C0E656FEDC563F39EEC04F09ED71EA5BB
:1049500016D006CF35FF07CF36FF08CF37FF06CF7B
:10496000E6FF07CFE6FF08CFE6FF1BEC62F0E5525B
:10497000E552E55207C036FC08C037FC10D006CF20
:104980003BFF07CF3CFF06CFE6FF07CFE6FF0DEC6E
:1049900062F0E552E552F3CF36FCF4CF37FC0C0160
:1049A000365137115DE0356B3651355D000E3755A8
:1049B0002DE23551146E156A030E145C000E155865
:1049C00025E20F011EA50DD035CFF6FF352B36CFD2
:1049D000F7FF000E362337CFF8FF37230800F550D6
:1049E00008D03BCFE9FF3CCFEAFF3B2B000E3C2336
:1049F000EF50E66E0C013551EA6A380FE96E0C0E85
:104A0000EA22E552E750EF6E352BCED73551146EC2
:104A1000156A1450365F1550375B040E0001B46FF1
:104A2000B56B0001380EB26F0C0EB36F0C0135512F
:104A30000001B06FB16B0001380EAE6F0C0EAF6F9E
:104A4000BAEC43F0040E0301666F676B0301380E86
:104A5000646F0C0E656FEDC563F39EEC04F09FD799
:104A60000301560E726FAA0E736F000EBED00301C3
:104A70004A0E726FAA0E736F000E746FEDC571F35C
:104A800047EC06F00F011EAD1ED00F013D0E556F15
:104A90000F0E566F12CF52FF13CF53FF14CF54FF98
:104AA00038EC2BF007C035FF08C036FF09C037FFD0
:104AB0003DCF6CF33ECF6DF307C069F308C06AF3D6
:104AC00009C06BF37BD00F013D0E506F0F0E516F7D
:104AD00012CF4EFF13CF4FFFD7EC2AF0F3CF3BFF9F
:104AE000F4CF3CFF3DCF66F33ECF67F3F3CF64F3E3
:104AF000F4CF65F370D009510A1117E01E51080B6D
:104B000014E10F013D0E506F0F0E516F09CF4EFF94
:104B10000ACF4FFFD7EC2AF0F3CF3BFFF4CF3CFF97
:104B20000F013D513E1101E0A6D009510A110B11B0
:104B30001BE01E51080B18E00F013D0E556F0F0EC4
:104B4000566F09CF52FF0ACF53FF0BCF54FF38ECFB
:104B50002BF007C035FF08C036FF09C037FF0F0133
:104B60003D513E1101E087D00F0E77D103013C0E7D
:104B7000726FAA0E736F000E746FEDC571F347EC80
:104B800006F00F011E51080B03E00C0E285D0CE02F
:104B90001E51100B03E0100E285D06E01E51200B85
:104BA00012E0140E285D0FE13DCF6CF33ECF6DF3A4
:104BB00035CF69F336CF6AF337CF6BF3EDC568F3C2
:104BC00062EC05F00CD03DCF66F33ECF67F33BCFF0
:104BD00064F33CCF65F3EDC563F39EEC04F0030191
:104BE000460E726FAA0E736F000E746FEDC571F3EF
:104BF00047EC06F0EDC55FF3DEEC03F0A3D31EA790
:104C000021D00F013D0E556F0F0E566F3DCF14F0A2
:104C10003ECF15F0166A350EE96E0F0EEA6EEE50B5
:104C200014240F01526FEE501520536FEE501620D2
:104C3000546F38EC2BF007C035FF08C036FF09C0B1
:104C400037FF15D00F013D0E506F0F0E516F0F0142
:104C50003B513D250F014E6F0F013C513E210F018D
:104C60004F6FD7EC2AF0F3CF3BFFF4CF3CFF0F019F
:104C70003D513E1102E00C0EF0D0282B0C510D11CD
:104C800016E01E51100B13E10F013D0E506F0F0E79
:104C9000516F0CCF4EFF0DCF4FFFD7EC2AF0F3CF63
:104CA0003BFFF4CF3CFF0F013D513E115CE10C5145
:104CB0000D110E111AE01E51100B17E00F013D0EE1
:104CC000556F0F0E566F0CCF52FF0DCF53FF0ECF07
:104CD00054FF38EC2BF007C035FF08C036FF09C081
:104CE00037FF0F013D513E113EE1130EB6D01EA914
:104CF00021D00F013D0E556F0F0E566F3DCF14F0B2
:104D00003ECF15F0166A350EE96E0F0EEA6EEE50C4
:104D100014240F01526FEE501520536FEE501620E1
:104D2000546F38EC2BF007C035FF08C036FF09C0C0
:104D300037FF15D00F013D0E506F0F0E516F0F0151
:104D40003B513D250F014E6F0F013C513E210F019C
:104D50004F6FD7EC2AF0F3CF3BFFF4CF3CFF0F01AE
:104D60003D513E1102E0100E78D0282B0F5110114A
:104D700016E01E51200B13E10F013D0E506F0F0E78
:104D8000516F0FCF4EFF10CF4FFFD7EC2AF0F3CF6C
:104D90003BFFF4CF3CFF0F013D513E111EE10F518F
:104DA000101111111CE01E51200B19E00F013D0ED6
:104DB000556F0F0E566F0FCF52FF10CF53FF11CF0D
:104DC00054FF38EC2BF007C035FF08C036FF09C090
:104DD00037FF0F013D513E1102E0140E3ED0170E79
:104DE0003CD01EAB21D00F013D0E556F0F0E566FFC
:104DF0003DCF14F03ECF15F0166A350EE96E0F0E5A
:104E0000EA6EEE5014240F01526FEE501520536FCE
:104E1000EE501620546F38EC2BF007C035FF08C059
:104E200036FF09C037FF14D00F013D0E506F0F0E33
:104E3000516F0F013B513D250F014E6F0F013C514A
:104E40003E210F014F6FB3DBF3CF3BFFF4CF3CFFAD
:104E50000F013D513E1103E0140E286F1200282B64
:104E60000301350E726FAA0E736F000E746FEDC5DD
:104E700071F347EC06F00F01282B296BA1D10A0E24
:104E80000F01295D01E19CD1EDC560F3F2EC03F067
:104E9000F3CF14F0F4CF15F0400ED880F354000E89
:104EA000F45401E38DD10F012951090A01E144D1E4
:104EB000010A01E127D10F0A01E1F0D0010A01E165
:104EC000D8D0030A01E1A1D0010A01E18ED0070A7E
:104ED00058E0010A46E0030A12E0010AD0E112514B
:104EE000131104E112511311141139E0010E296F4D
:104EF00003012E0E726FAA0E736F000EC9D01EAD85
:104F00001BD012CF72F313CF73F314CF74F3EDC52C
:104F100071F347EC06F007C012FF08C013FF09C089
:104F200014FF07C0F6FF08C0F7FF09C0F8FF08002C
:104F3000F550A5E10F0113D012CF6FF313CF70F32B
:104F4000EDC56EF329EC06F0F3CF12FFF4CF13FF9B
:104F5000F3CFE9FFF4CFEAFFEF5091E10F01020E2A
:104F6000E9D009510A1104E109510A110B113BE082
:104F7000030E296F0301270E726FAA0E736F000EC6
:104F800087D01EA71CD009CF72F30ACF73F30BCFC3
:104F900074F3EDC571F347EC06F007C009FF08C0D4
:104FA0000AFF09C00BFF07C0F6FF08C0F7FF09C0E2
:104FB000F8FF0800F55001E062D70F0114D009CFC7
:104FC0006FF30ACF70F3EDC56EF329EC06F0F3CF63
:104FD00009FFF4CF0AFFF3CFE9FFF4CFEAFFEF5068
:104FE00001E04DD70F01040EA5D00C510D1104E1C5
:104FF0000C510D110E113BE0050E296F0301200E1F
:10500000726FAA0E736F000E43D01EA91CD00CCF76
:1050100072F30DCF73F30ECF74F3EDC571F347EC5C
:1050200006F007C00CFF08C00DFF09C00EFF07C047
:10503000F6FF08C0F7FF09C0F8FF0800F55001E0CF
:105040001ED70F0114D00CCF6FF30DCF70F3EDC549
:105050006EF329EC06F0F3CF0CFFF4CF0DFFF3CF86
:10506000E9FFF4CFEAFFEF5001E009D70F01060E88
:1050700061D01551161104E115511611171140E0B8
:10508000070E296F0301140E726FAA0E736F000EC4
:10509000746FEDC571F347EC06F0F1D61EAF1CD06E
:1050A00015CF72F316CF73F317CF74F3EDC571F309
:1050B00047EC06F007C015FF08C016FF09C017FF30
:1050C00007C0F6FF08C0F7FF09C0F8FF0800F55059
:1050D00001E0D5D60F0114D015CF6FF316CF70F3C2
:1050E000EDC56EF329EC06F0F3CF15FFF4CF16FFF4
:1050F000F3CFE9FFF4CFEAFFEF5001E0C0D60F0194
:10510000080E18D0020E03016C6F6D6B0301560E72
:10511000696FAA0E6A6F000E6B6FEDC568F362ECE3
:1051200005F00F011851191104E1185119111A1144
:1051300033E0090E296FA3D61FA11BD018CF72F33D
:1051400019CF73F31ACF74F3EDC571F347EC06F082
:1051500007C018FF08C019FF09C01AFF07C0F6FFF3
:1051600008C0F7FF09C0F8FF0800F55001E087D636
:1051700013D018CF6FF319CF70F3EDC56EF329EC90
:1051800006F0F3CF18FFF4CF19FFF3CFE9FFF4CF08
:10519000EAFFEF5001E073D6020E03016C6F6D6BF6
:1051A0000301560E696FAA0E6A6F000E6B6FEDC594
:1051B00068F362EC05F00F010A0E296F282B5FD609
:1051C000EDC55FF3DEEF03F0282B1BCF3BFF1CCFB9
:1051D0003CFF0E0E386FAA0E396F000E3A6F266B29
:1051E000276B3B513C1118E00A0EE66EAA0EE66EE4
:1051F000000EE66E3BCFE6FF3CCFE6FF40EC62F0F0
:10520000146E050EE15C02E2E16AE552E16E1450B3
:10521000F3CF26FFF4CF27FF0F011B511C1104E130
:105220001B511C111D1165E038CFF6FF39CFF7FF78
:105230003ACFF8FF0800F55001E17BD00F0126516D
:1052400027114AE0030E2627000E27233B51265D37
:105250000301666F0F013C5127590301676F3BCF74
:1052600064F33CCF65F3EDC563F39EEC04F0F350BB
:105270000F013B27F4503C2326513B190FE12751E6
:105280003C190CE103012E0E626FEDC561F32EECAB
:1052900004F0000908E1030E0F0101D0030E265FA0
:1052A000000E275B19D00A0EE66EAA0EE66E000EFF
:1052B000E66E3BCFE6FF3CCFE6FF40EC62F0146EBB
:1052C000050EE15C02E2E16AE552E16E1450F3CFB3
:1052D00026FFF4CF27FFB2D73BCF6FF33CCF70F35D
:1052E000EDC56EF329EC06F0F3CF3BFFF4CF3CFFA6
:1052F0000CD00501EFA91DD038CFF6FF39CFF7FF4D
:105300003ACFF8FF0800F55014E038CF72F339CFE8
:1053100073F33ACF74F3EDC571F347EC06F007C0B1
:1053200038FF08C039FF09C03AFFEDC55FF3DEEC76
:1053300003F038CFF6FF39CFF7FF3ACFF8FF080078
:10534000F55034E10F01282B1200282B030E356F86
:10535000AA0E366F000E376F35CFF6FF36CFF7FF48
:1053600037CFF8FF0800F55014E035CF72F336CF91
:1053700073F337CF74F3EDC571F347EC06F007C054
:1053800035FF08C036FF09C037FFEDC55FF3DEEC1F
:1053900003F035CFF6FF36CFF7FF37CFF8FF080021
:1053A000F55004E10501050EEE6F12001200EDC587
:1053B00050F358EC03F00501FE0EED6FEE6B12009A
:1053C0000501EF8712000501EE5101E1000C010C0F
:1053D0001B0E0F01285D03E0F36AF46A1200EDC5AD
:1053E00060F3F2EF03F0030E0F01265D0DE1030100
:1053F0002E0E626FEDC561F32EEC04F0000903E0A0
:105400000F01266B01D0000C2651020A0FE0030A9F
:1054100006E0010A16E10D0E3F5D13E10AD00A0E07
:105420003F5D07E00D0E3F5D0CE008D02E0E3F5DA6
:1054300002E1262B06D00D0E3F5D02E1260701D0CA
:10544000266B3FCF62F3EDC561F32EEC04F000094B
:1054500001E1000C010C0C012A6B2B6B0F0142CFF8
:1054600014F043CF15F04207000E435B14501510A3
:1054700015E040CFE9FF41CFEAFF402B000E41236A
:10548000EFCF3FFFB0DF000905E00C012A2B000E33
:105490002B23E4D70F014007000E415B2ACCF3FF1A
:1054A0002BCCF4FF12000C012A6B2B6B0F0147CFA2
:1054B00014F048CF15F04707000E485B1450151044
:1054C0001AE044CFF6FF442B45CFF7FF000E4523EB
:1054D00046CFF8FF46230800F5CF3FFF84DF0009E1
:1054E00005E00C012A2B000E2B23E0D70F01440707
:1054F000000E455B465B2ACCF3FF2BCCF4FF120079
:105500000C012A6B2B6B49CFE9FF4ACFEAFFEF5022
:1055100016E00F0149CFE9FF4ACFEAFF492B000E01
:105520004A23EFCF3FFF5FDF000905E00C012A2B84
:10553000000E2B23E8D70F014907000E4A5B2ACC47
:10554000F3FF2BCCF4FF12000C012A6B2B6B4BCF1B
:10555000F6FF4CCFF7FF4DCFF8FF0800F5501BE0EA
:105560000F014BCFF6FF4B2B4CCFF7FF000E4C2318
:105570004DCFF8FF4D230800F5CF3FFF34DF000982
:1055800005E00C012A2B000E2B23E1D70F014B075E
:10559000000E4C5B4D5B2ACCF3FF2BCCF4FF1200CA
:1055A000EDC55FF3DEEF03F00501EF8912004ECF8A
:1055B00000FC4FCF01FC000E50CFE9FF51CFEAFFB6
:1055C000EE6EED6A0C01036B0F014ECFE9FF4FCF7A
:1055D000EAFF4E2B000E4F23EFCF02FCEF5039E0D5
:1055E0003C0E0C01025D0CE103814ECF00FC4FCF5D
:1055F00001FC50CFE9FF51CFEAFFEE68ED6804D01F
:10560000400E025D01E103830351010B0EE10351E2
:10561000020B0BE1200E025D03E02C0E025D05E1A2
:105620004ECF00FC4FCF01FCCFD72C0E025D11E016
:105630000351010B06E00351020B03E03E0E025D35
:1056400008E050CFE9FF51CFEAFFEE2A000EED222D
:10565000BBD70C0103B307D0000E50CFE9FF51CFE9
:10566000EAFFEE6EED6A00CCF3FF01CCF4FF12000E
:1056700052CF00FC53CF01FC54CF02FC000E55CF9B
:10568000E9FF56CFEAFFEE6EED6A0C01046B0F01E5
:1056900052CFF6FF522B53CFF7FF000E532354CFB8
:1056A000F8FF54230800F5CF03FCF5503DE03C0E15
:1056B0000C01035D0EE1048152CF00FC53CF01FCCD
:1056C00054CF02FC55CFE9FF56CFEAFFEE68ED68F4
:1056D00004D0400E035D01E104830451010B10E18D
:1056E0000451020B0DE1200E035D03E02C0E035D5F
:1056F00007E152CF00FC53CF01FC54CF02FCC7D7C7
:105700002C0E035D11E00451010B06E00451020B65
:1057100003E03E0E035D08E055CFE9FF56CFEAFFF8
:10572000EE2A000EED22B3D70C0104B307D0000E11
:1057300055CFE9FF56CFEAFFEE6EED6A00CC07F0D9
:0A57400001CC08F002CC09F01200C1
:06574A00140EE66EE66A93
:10575000E66A050EE66E050EE66E9EEC61F0146ECE
:10576000050EE15C02E2E16AE552E16E14500501CA
:105770001881580E056FA90E066F000E076F500EA8
:10578000086F096B96EC66F006C019F507C01AF5AC
:1057900008C01BF509C01CF52E0E05011927500E77
:1057A0001A23090E1B23000E1C23010E1D6F110E60
:1057B000046F120005016451130A02E1C9EF33F0CE
:1057C000010A02E1B3EF33F0030A02E1A2EF33F082
:1057D000010A02E178EF33F01F0A02E1D9EF32F05B
:1057E000010A02E168EF32F0030A02E118EF32F039
:1057F000010A02E1BFEF30F0070A02E159EF30F091
:10580000010A02E100EF30F0030A01E16DD3010A61
:1058100001E129D30F0A01E1ECD2010A01E1AFD283
:10582000030A01E178D2010A01E104D2070A01E189
:1058300082D1010A01E105D1030A1AE0010A01E05F
:10584000120096EC66F005011951065C146E1A51AF
:105850000758156E1B510858166E1C510958176EC3
:105860000001800E171401E012000501010E646FA3
:10587000020E0501E76E0419E8AE02D0E73402D04B
:10588000E750045D0FE30C0EE76E0419E8AE02D09A
:10589000043503D0E750D880045504E30501110E08
:1058A000646F12001851100B0FE0155116111711EB
:1058B00001E186D015C5F6FF16C5F7FF17C5F8FF3D
:1058C0000800F55001E17CD01851100B09E1155189
:1058D000161176E015C5E9FF16C5EAFFEF5070E036
:1058E0001851040B0DE00F511011111169E00FC593
:1058F000F6FF10C5F7FF11C5F8FF0800F55060E08E
:105900001851040B09E10F5110115AE00FC5E9FFBE
:1059100010C5EAFFEF5054E01851080B0DE012518A
:10592000131114114DE012C5F6FF13C5F7FF14C58E
:10593000F8FF0800F55044E01851080B09E1125136
:1059400013113EE012C5E9FF13C5EAFFEF5038E03E
:105950001851010B0DE005510611071131E005C585
:10596000F6FF06C5F7FF07C5F8FF0800F55028E069
:105970001851010B09E10551061122E005C5E9FFA7
:1059800006C5EAFFEF501CE01851020B0DE00A516A
:105990000B110C1115E00AC5F6FF0BC5F7FF0CC57E
:1059A000F8FF0800F5500CE01851020B10E10A5105
:1059B0000B1106E00AC5E9FF0BC5EAFFEF5007E14E
:1059C0000501120E646F0501100E046F1200276BA3
:1059D00018A112D00301090E4D6F08C54BF309C57C
:1059E0004CF30301020E4A6F05C546F306C547F3A3
:1059F00007C548F3030110D00301090E4D6F08C518
:105A00004BF309C54CF30301010E4A6F05C546F37C
:105A100006C547F30301486B496B6DEC02F00501C5
:105A2000636FFE0E635D01E11200642B96EC66F07D
:105A300006C01EF507C01FF508C020F509C021F5F6
:105A4000120063C54FF34FEC03F0000929E196EC17
:105A500066F005011E51065C146E1F510758156E45
:105A600020510858166E21510958176ED880AC0E77
:105A70001454B90E1554030E1654000E175402E3B5
:105A8000DEEF33F063C550F358EC03F00501FE0E72
:105A9000636F05010F0E046F0501120E646F120093
:105AA00096EC66F006C01EF507C01FF508C020F58D
